{
  "contractName": "ERC1155PresetMinterPauser",
  "abi": [
    {
      "inputs": [
        {
          "internalType": "string",
          "name": "uri",
          "type": "string"
        }
      ],
      "stateMutability": "nonpayable",
      "type": "constructor"
    },
    {
      "anonymous": false,
      "inputs": [
        {
          "indexed": true,
          "internalType": "address",
          "name": "account",
          "type": "address"
        },
        {
          "indexed": true,
          "internalType": "address",
          "name": "operator",
          "type": "address"
        },
        {
          "indexed": false,
          "internalType": "bool",
          "name": "approved",
          "type": "bool"
        }
      ],
      "name": "ApprovalForAll",
      "type": "event"
    },
    {
      "anonymous": false,
      "inputs": [
        {
          "indexed": false,
          "internalType": "address",
          "name": "account",
          "type": "address"
        }
      ],
      "name": "Paused",
      "type": "event"
    },
    {
      "anonymous": false,
      "inputs": [
        {
          "indexed": true,
          "internalType": "bytes32",
          "name": "role",
          "type": "bytes32"
        },
        {
          "indexed": true,
          "internalType": "bytes32",
          "name": "previousAdminRole",
          "type": "bytes32"
        },
        {
          "indexed": true,
          "internalType": "bytes32",
          "name": "newAdminRole",
          "type": "bytes32"
        }
      ],
      "name": "RoleAdminChanged",
      "type": "event"
    },
    {
      "anonymous": false,
      "inputs": [
        {
          "indexed": true,
          "internalType": "bytes32",
          "name": "role",
          "type": "bytes32"
        },
        {
          "indexed": true,
          "internalType": "address",
          "name": "account",
          "type": "address"
        },
        {
          "indexed": true,
          "internalType": "address",
          "name": "sender",
          "type": "address"
        }
      ],
      "name": "RoleGranted",
      "type": "event"
    },
    {
      "anonymous": false,
      "inputs": [
        {
          "indexed": true,
          "internalType": "bytes32",
          "name": "role",
          "type": "bytes32"
        },
        {
          "indexed": true,
          "internalType": "address",
          "name": "account",
          "type": "address"
        },
        {
          "indexed": true,
          "internalType": "address",
          "name": "sender",
          "type": "address"
        }
      ],
      "name": "RoleRevoked",
      "type": "event"
    },
    {
      "anonymous": false,
      "inputs": [
        {
          "indexed": true,
          "internalType": "address",
          "name": "operator",
          "type": "address"
        },
        {
          "indexed": true,
          "internalType": "address",
          "name": "from",
          "type": "address"
        },
        {
          "indexed": true,
          "internalType": "address",
          "name": "to",
          "type": "address"
        },
        {
          "indexed": false,
          "internalType": "uint256[]",
          "name": "ids",
          "type": "uint256[]"
        },
        {
          "indexed": false,
          "internalType": "uint256[]",
          "name": "values",
          "type": "uint256[]"
        }
      ],
      "name": "TransferBatch",
      "type": "event"
    },
    {
      "anonymous": false,
      "inputs": [
        {
          "indexed": true,
          "internalType": "address",
          "name": "operator",
          "type": "address"
        },
        {
          "indexed": true,
          "internalType": "address",
          "name": "from",
          "type": "address"
        },
        {
          "indexed": true,
          "internalType": "address",
          "name": "to",
          "type": "address"
        },
        {
          "indexed": false,
          "internalType": "uint256",
          "name": "id",
          "type": "uint256"
        },
        {
          "indexed": false,
          "internalType": "uint256",
          "name": "value",
          "type": "uint256"
        }
      ],
      "name": "TransferSingle",
      "type": "event"
    },
    {
      "anonymous": false,
      "inputs": [
        {
          "indexed": false,
          "internalType": "string",
          "name": "value",
          "type": "string"
        },
        {
          "indexed": true,
          "internalType": "uint256",
          "name": "id",
          "type": "uint256"
        }
      ],
      "name": "URI",
      "type": "event"
    },
    {
      "anonymous": false,
      "inputs": [
        {
          "indexed": false,
          "internalType": "address",
          "name": "account",
          "type": "address"
        }
      ],
      "name": "Unpaused",
      "type": "event"
    },
    {
      "inputs": [],
      "name": "DEFAULT_ADMIN_ROLE",
      "outputs": [
        {
          "internalType": "bytes32",
          "name": "",
          "type": "bytes32"
        }
      ],
      "stateMutability": "view",
      "type": "function"
    },
    {
      "inputs": [],
      "name": "MINTER_ROLE",
      "outputs": [
        {
          "internalType": "bytes32",
          "name": "",
          "type": "bytes32"
        }
      ],
      "stateMutability": "view",
      "type": "function"
    },
    {
      "inputs": [],
      "name": "PAUSER_ROLE",
      "outputs": [
        {
          "internalType": "bytes32",
          "name": "",
          "type": "bytes32"
        }
      ],
      "stateMutability": "view",
      "type": "function"
    },
    {
      "inputs": [
        {
          "internalType": "address",
          "name": "account",
          "type": "address"
        },
        {
          "internalType": "uint256",
          "name": "id",
          "type": "uint256"
        }
      ],
      "name": "balanceOf",
      "outputs": [
        {
          "internalType": "uint256",
          "name": "",
          "type": "uint256"
        }
      ],
      "stateMutability": "view",
      "type": "function"
    },
    {
      "inputs": [
        {
          "internalType": "address[]",
          "name": "accounts",
          "type": "address[]"
        },
        {
          "internalType": "uint256[]",
          "name": "ids",
          "type": "uint256[]"
        }
      ],
      "name": "balanceOfBatch",
      "outputs": [
        {
          "internalType": "uint256[]",
          "name": "",
          "type": "uint256[]"
        }
      ],
      "stateMutability": "view",
      "type": "function"
    },
    {
      "inputs": [
        {
          "internalType": "address",
          "name": "account",
          "type": "address"
        },
        {
          "internalType": "uint256",
          "name": "id",
          "type": "uint256"
        },
        {
          "internalType": "uint256",
          "name": "value",
          "type": "uint256"
        }
      ],
      "name": "burn",
      "outputs": [],
      "stateMutability": "nonpayable",
      "type": "function"
    },
    {
      "inputs": [
        {
          "internalType": "address",
          "name": "account",
          "type": "address"
        },
        {
          "internalType": "uint256[]",
          "name": "ids",
          "type": "uint256[]"
        },
        {
          "internalType": "uint256[]",
          "name": "values",
          "type": "uint256[]"
        }
      ],
      "name": "burnBatch",
      "outputs": [],
      "stateMutability": "nonpayable",
      "type": "function"
    },
    {
      "inputs": [
        {
          "internalType": "bytes32",
          "name": "role",
          "type": "bytes32"
        }
      ],
      "name": "getRoleAdmin",
      "outputs": [
        {
          "internalType": "bytes32",
          "name": "",
          "type": "bytes32"
        }
      ],
      "stateMutability": "view",
      "type": "function"
    },
    {
      "inputs": [
        {
          "internalType": "bytes32",
          "name": "role",
          "type": "bytes32"
        },
        {
          "internalType": "uint256",
          "name": "index",
          "type": "uint256"
        }
      ],
      "name": "getRoleMember",
      "outputs": [
        {
          "internalType": "address",
          "name": "",
          "type": "address"
        }
      ],
      "stateMutability": "view",
      "type": "function"
    },
    {
      "inputs": [
        {
          "internalType": "bytes32",
          "name": "role",
          "type": "bytes32"
        }
      ],
      "name": "getRoleMemberCount",
      "outputs": [
        {
          "internalType": "uint256",
          "name": "",
          "type": "uint256"
        }
      ],
      "stateMutability": "view",
      "type": "function"
    },
    {
      "inputs": [
        {
          "internalType": "bytes32",
          "name": "role",
          "type": "bytes32"
        },
        {
          "internalType": "address",
          "name": "account",
          "type": "address"
        }
      ],
      "name": "grantRole",
      "outputs": [],
      "stateMutability": "nonpayable",
      "type": "function"
    },
    {
      "inputs": [
        {
          "internalType": "bytes32",
          "name": "role",
          "type": "bytes32"
        },
        {
          "internalType": "address",
          "name": "account",
          "type": "address"
        }
      ],
      "name": "hasRole",
      "outputs": [
        {
          "internalType": "bool",
          "name": "",
          "type": "bool"
        }
      ],
      "stateMutability": "view",
      "type": "function"
    },
    {
      "inputs": [
        {
          "internalType": "address",
          "name": "account",
          "type": "address"
        },
        {
          "internalType": "address",
          "name": "operator",
          "type": "address"
        }
      ],
      "name": "isApprovedForAll",
      "outputs": [
        {
          "internalType": "bool",
          "name": "",
          "type": "bool"
        }
      ],
      "stateMutability": "view",
      "type": "function"
    },
    {
      "inputs": [],
      "name": "paused",
      "outputs": [
        {
          "internalType": "bool",
          "name": "",
          "type": "bool"
        }
      ],
      "stateMutability": "view",
      "type": "function"
    },
    {
      "inputs": [
        {
          "internalType": "bytes32",
          "name": "role",
          "type": "bytes32"
        },
        {
          "internalType": "address",
          "name": "account",
          "type": "address"
        }
      ],
      "name": "renounceRole",
      "outputs": [],
      "stateMutability": "nonpayable",
      "type": "function"
    },
    {
      "inputs": [
        {
          "internalType": "bytes32",
          "name": "role",
          "type": "bytes32"
        },
        {
          "internalType": "address",
          "name": "account",
          "type": "address"
        }
      ],
      "name": "revokeRole",
      "outputs": [],
      "stateMutability": "nonpayable",
      "type": "function"
    },
    {
      "inputs": [
        {
          "internalType": "address",
          "name": "from",
          "type": "address"
        },
        {
          "internalType": "address",
          "name": "to",
          "type": "address"
        },
        {
          "internalType": "uint256[]",
          "name": "ids",
          "type": "uint256[]"
        },
        {
          "internalType": "uint256[]",
          "name": "amounts",
          "type": "uint256[]"
        },
        {
          "internalType": "bytes",
          "name": "data",
          "type": "bytes"
        }
      ],
      "name": "safeBatchTransferFrom",
      "outputs": [],
      "stateMutability": "nonpayable",
      "type": "function"
    },
    {
      "inputs": [
        {
          "internalType": "address",
          "name": "from",
          "type": "address"
        },
        {
          "internalType": "address",
          "name": "to",
          "type": "address"
        },
        {
          "internalType": "uint256",
          "name": "id",
          "type": "uint256"
        },
        {
          "internalType": "uint256",
          "name": "amount",
          "type": "uint256"
        },
        {
          "internalType": "bytes",
          "name": "data",
          "type": "bytes"
        }
      ],
      "name": "safeTransferFrom",
      "outputs": [],
      "stateMutability": "nonpayable",
      "type": "function"
    },
    {
      "inputs": [
        {
          "internalType": "address",
          "name": "operator",
          "type": "address"
        },
        {
          "internalType": "bool",
          "name": "approved",
          "type": "bool"
        }
      ],
      "name": "setApprovalForAll",
      "outputs": [],
      "stateMutability": "nonpayable",
      "type": "function"
    },
    {
      "inputs": [
        {
          "internalType": "uint256",
          "name": "",
          "type": "uint256"
        }
      ],
      "name": "uri",
      "outputs": [
        {
          "internalType": "string",
          "name": "",
          "type": "string"
        }
      ],
      "stateMutability": "view",
      "type": "function"
    },
    {
      "inputs": [
        {
          "internalType": "address",
          "name": "to",
          "type": "address"
        },
        {
          "internalType": "uint256",
          "name": "id",
          "type": "uint256"
        },
        {
          "internalType": "uint256",
          "name": "amount",
          "type": "uint256"
        },
        {
          "internalType": "bytes",
          "name": "data",
          "type": "bytes"
        }
      ],
      "name": "mint",
      "outputs": [],
      "stateMutability": "nonpayable",
      "type": "function"
    },
    {
      "inputs": [
        {
          "internalType": "address",
          "name": "to",
          "type": "address"
        },
        {
          "internalType": "uint256[]",
          "name": "ids",
          "type": "uint256[]"
        },
        {
          "internalType": "uint256[]",
          "name": "amounts",
          "type": "uint256[]"
        },
        {
          "internalType": "bytes",
          "name": "data",
          "type": "bytes"
        }
      ],
      "name": "mintBatch",
      "outputs": [],
      "stateMutability": "nonpayable",
      "type": "function"
    },
    {
      "inputs": [],
      "name": "pause",
      "outputs": [],
      "stateMutability": "nonpayable",
      "type": "function"
    },
    {
      "inputs": [],
      "name": "unpause",
      "outputs": [],
      "stateMutability": "nonpayable",
      "type": "function"
    },
    {
      "inputs": [
        {
          "internalType": "bytes4",
          "name": "interfaceId",
          "type": "bytes4"
        }
      ],
      "name": "supportsInterface",
      "outputs": [
        {
          "internalType": "bool",
          "name": "",
          "type": "bool"
        }
      ],
      "stateMutability": "view",
      "type": "function"
    }
  ],
  "bytecode": "0x60806040523480156200001157600080fd5b5060405162005006380380620050068339818101604052810190620000379190620004e6565b8062000049816200011260201b60201c565b506000600560006101000a81548160ff021916908315150217905550620000896000801b6200007d6200012e60201b60201c565b6200013660201b60201c565b620000ca7f9f2df0fed2c77648de5860a4cc508cd0818c85b8b8a1ab4ceeef8d981c8956a6620000be6200012e60201b60201c565b6200013660201b60201c565b6200010b7f65d7a28e3265b37a6474929f336521b332c1681b933f6cb9f3376673440d862a620000ff6200012e60201b60201c565b6200013660201b60201c565b506200065c565b80600490805190602001906200012a929190620003c4565b5050565b600033905090565b6200014d82826200017e60201b620016251760201c565b6200017981600160008581526020019081526020016000206200019460201b620016331790919060201c565b505050565b620001908282620001cc60201b60201c565b5050565b6000620001c4836000018373ffffffffffffffffffffffffffffffffffffffff1660001b620002bd60201b60201c565b905092915050565b620001de82826200033760201b60201c565b620002b957600160008084815260200190815260200160002060000160008373ffffffffffffffffffffffffffffffffffffffff1673ffffffffffffffffffffffffffffffffffffffff16815260200190815260200160002060006101000a81548160ff0219169083151502179055506200025e6200012e60201b60201c565b73ffffffffffffffffffffffffffffffffffffffff168173ffffffffffffffffffffffffffffffffffffffff16837f2f8788117e7eff1d82e926ec794901d17c78024a50270940304540a733656f0d60405160405180910390a45b5050565b6000620002d18383620003a160201b60201c565b6200032c57826000018290806001815401808255809150506001900390600052602060002001600090919091909150558260000180549050836001016000848152602001908152602001600020819055506001905062000331565b600090505b92915050565b600080600084815260200190815260200160002060000160008373ffffffffffffffffffffffffffffffffffffffff1673ffffffffffffffffffffffffffffffffffffffff16815260200190815260200160002060009054906101000a900460ff16905092915050565b600080836001016000848152602001908152602001600020541415905092915050565b828054620003d290620005c8565b90600052602060002090601f016020900481019282620003f6576000855562000442565b82601f106200041157805160ff191683800117855562000442565b8280016001018555821562000442579182015b828111156200044157825182559160200191906001019062000424565b5b50905062000451919062000455565b5090565b5b808211156200047057600081600090555060010162000456565b5090565b60006200048b62000485846200055f565b6200052b565b905082815260208101848484011115620004a457600080fd5b620004b184828562000592565b509392505050565b600082601f830112620004cb57600080fd5b8151620004dd84826020860162000474565b91505092915050565b600060208284031215620004f957600080fd5b600082015167ffffffffffffffff8111156200051457600080fd5b6200052284828501620004b9565b91505092915050565b6000604051905081810181811067ffffffffffffffff821117156200055557620005546200062d565b5b8060405250919050565b600067ffffffffffffffff8211156200057d576200057c6200062d565b5b601f19601f8301169050602081019050919050565b60005b83811015620005b257808201518184015260208101905062000595565b83811115620005c2576000848401525b50505050565b60006002820490506001821680620005e157607f821691505b60208210811415620005f857620005f7620005fe565b5b50919050565b7f4e487b7100000000000000000000000000000000000000000000000000000000600052602260045260246000fd5b7f4e487b7100000000000000000000000000000000000000000000000000000000600052604160045260246000fd5b61499a806200066c6000396000f3fe608060405234801561001057600080fd5b50600436106101725760003560e01c8063731133e9116100de578063ca15c87311610097578063e63ab1e911610071578063e63ab1e914610445578063e985e9c514610463578063f242432a14610493578063f5298aca146104af57610172565b8063ca15c873146103db578063d53913931461040b578063d547741f1461042957610172565b8063731133e91461031b5780638456cb59146103375780639010d07c1461034157806391d1485414610371578063a217fddf146103a1578063a22cb465146103bf57610172565b80632f2ff15d116101305780632f2ff15d1461026f57806336568abe1461028b5780633f4ba83a146102a75780634e1273f4146102b15780635c975abb146102e15780636b20c454146102ff57610172565b8062fdd58e1461017757806301ffc9a7146101a75780630e89341c146101d75780631f7fdffa14610207578063248a9ca3146102235780632eb2c2d614610253575b600080fd5b610191600480360381019061018c9190613350565b6104cb565b60405161019e919061445d565b60405180910390f35b6101c160048036038101906101bc9190613563565b610595565b6040516101ce9190614125565b60405180910390f35b6101f160048036038101906101ec91906135b5565b6105a7565b6040516101fe919061415b565b60405180910390f35b610221600480360381019061021c9190613269565b61063b565b005b61023d600480360381019061023891906134c2565b6106bd565b60405161024a9190614140565b60405180910390f35b61026d6004803603810190610268919061309c565b6106dc565b005b610289600480360381019061028491906134eb565b610ad5565b005b6102a560048036038101906102a091906134eb565b610b09565b005b6102af610b3d565b005b6102cb60048036038101906102c69190613456565b610bb7565b6040516102d891906140cc565b60405180910390f35b6102e9610d68565b6040516102f69190614125565b60405180910390f35b610319600480360381019061031491906131ea565b610d7f565b005b610335600480360381019061033091906133db565b610e1c565b005b61033f610e9e565b005b61035b60048036038101906103569190613527565b610f18565b6040516103689190613fef565b60405180910390f35b61038b600480360381019061038691906134eb565b610f47565b6040516103989190614125565b60405180910390f35b6103a9610fb1565b6040516103b69190614140565b60405180910390f35b6103d960048036038101906103d49190613314565b610fb8565b005b6103f560048036038101906103f091906134c2565b611139565b604051610402919061445d565b60405180910390f35b61041361115d565b6040516104209190614140565b60405180910390f35b610443600480360381019061043e91906134eb565b611181565b005b61044d6111b5565b60405161045a9190614140565b60405180910390f35b61047d60048036038101906104789190613060565b6111d9565b60405161048a9190614125565b60405180910390f35b6104ad60048036038101906104a8919061315b565b61126d565b005b6104c960048036038101906104c4919061338c565b611588565b005b60008073ffffffffffffffffffffffffffffffffffffffff168373ffffffffffffffffffffffffffffffffffffffff16141561053c576040517f08c379a00000000000000000000000000000000000000000000000000000000081526004016105339061421d565b60405180910390fd5b6002600083815260200190815260200160002060008473ffffffffffffffffffffffffffffffffffffffff1673ffffffffffffffffffffffffffffffffffffffff16815260200190815260200160002054905092915050565b60006105a082611663565b9050919050565b6060600480546105b690614715565b80601f01602080910402602001604051908101604052809291908181526020018280546105e290614715565b801561062f5780601f106106045761010080835404028352916020019161062f565b820191906000526020600020905b81548152906001019060200180831161061257829003601f168201915b50505050509050919050565b61066c7f9f2df0fed2c77648de5860a4cc508cd0818c85b8b8a1ab4ceeef8d981c8956a6610667611745565b610f47565b6106ab576040517f08c379a00000000000000000000000000000000000000000000000000000000081526004016106a29061433d565b60405180910390fd5b6106b78484848461174d565b50505050565b6000806000838152602001908152602001600020600101549050919050565b8151835114610720576040517f08c379a0000000000000000000000000000000000000000000000000000000008152600401610717906143fd565b60405180910390fd5b600073ffffffffffffffffffffffffffffffffffffffff168473ffffffffffffffffffffffffffffffffffffffff161415610790576040517f08c379a0000000000000000000000000000000000000000000000000000000008152600401610787906142dd565b60405180910390fd5b610798611745565b73ffffffffffffffffffffffffffffffffffffffff168573ffffffffffffffffffffffffffffffffffffffff1614806107de57506107dd856107d8611745565b6111d9565b5b61081d576040517f08c379a0000000000000000000000000000000000000000000000000000000008152600401610814906142fd565b60405180910390fd5b6000610827611745565b90506108378187878787876119b8565b60005b8451811015610a4057600085828151811061087e577f4e487b7100000000000000000000000000000000000000000000000000000000600052603260045260246000fd5b6020026020010151905060008583815181106108c3577f4e487b7100000000000000000000000000000000000000000000000000000000600052603260045260246000fd5b6020026020010151905060006002600084815260200190815260200160002060008b73ffffffffffffffffffffffffffffffffffffffff1673ffffffffffffffffffffffffffffffffffffffff16815260200190815260200160002054905081811015610965576040517f08c379a000000000000000000000000000000000000000000000000000000000815260040161095c9061435d565b60405180910390fd5b81816109719190614621565b6002600085815260200190815260200160002060008c73ffffffffffffffffffffffffffffffffffffffff1673ffffffffffffffffffffffffffffffffffffffff16815260200190815260200160002081905550816002600085815260200190815260200160002060008b73ffffffffffffffffffffffffffffffffffffffff1673ffffffffffffffffffffffffffffffffffffffff1681526020019081526020016000206000828254610a2591906145cb565b9250508190555050505080610a3990614747565b905061083a565b508473ffffffffffffffffffffffffffffffffffffffff168673ffffffffffffffffffffffffffffffffffffffff168273ffffffffffffffffffffffffffffffffffffffff167f4a39dc06d4c0dbc64b70af90fd698a233a518aa5d07e595d983b8c0526c8f7fb8787604051610ab79291906140ee565b60405180910390a4610acd8187878787876119ce565b505050505050565b610adf8282611b9e565b610b04816001600085815260200190815260200160002061163390919063ffffffff16565b505050565b610b138282611c04565b610b388160016000858152602001908152602001600020611c8790919063ffffffff16565b505050565b610b6e7f65d7a28e3265b37a6474929f336521b332c1681b933f6cb9f3376673440d862a610b69611745565b610f47565b610bad576040517f08c379a0000000000000000000000000000000000000000000000000000000008152600401610ba49061437d565b60405180910390fd5b610bb5611cb7565b565b60608151835114610bfd576040517f08c379a0000000000000000000000000000000000000000000000000000000008152600401610bf4906143dd565b60405180910390fd5b6000835167ffffffffffffffff811115610c40577f4e487b7100000000000000000000000000000000000000000000000000000000600052604160045260246000fd5b604051908082528060200260200182016040528015610c6e5781602001602082028036833780820191505090505b50905060005b8451811015610d5d57610d07858281518110610cb9577f4e487b7100000000000000000000000000000000000000000000000000000000600052603260045260246000fd5b6020026020010151858381518110610cfa577f4e487b7100000000000000000000000000000000000000000000000000000000600052603260045260246000fd5b60200260200101516104cb565b828281518110610d40577f4e487b7100000000000000000000000000000000000000000000000000000000600052603260045260246000fd5b60200260200101818152505080610d5690614747565b9050610c74565b508091505092915050565b6000600560009054906101000a900460ff16905090565b610d87611745565b73ffffffffffffffffffffffffffffffffffffffff168373ffffffffffffffffffffffffffffffffffffffff161480610dcd5750610dcc83610dc7611745565b6111d9565b5b610e0c576040517f08c379a0000000000000000000000000000000000000000000000000000000008152600401610e039061427d565b60405180910390fd5b610e17838383611d59565b505050565b610e4d7f9f2df0fed2c77648de5860a4cc508cd0818c85b8b8a1ab4ceeef8d981c8956a6610e48611745565b610f47565b610e8c576040517f08c379a0000000000000000000000000000000000000000000000000000000008152600401610e839061433d565b60405180910390fd5b610e9884848484612061565b50505050565b610ecf7f65d7a28e3265b37a6474929f336521b332c1681b933f6cb9f3376673440d862a610eca611745565b610f47565b610f0e576040517f08c379a0000000000000000000000000000000000000000000000000000000008152600401610f059061439d565b60405180910390fd5b610f166121f8565b565b6000610f3f826001600086815260200190815260200160002061229b90919063ffffffff16565b905092915050565b600080600084815260200190815260200160002060000160008373ffffffffffffffffffffffffffffffffffffffff1673ffffffffffffffffffffffffffffffffffffffff16815260200190815260200160002060009054906101000a900460ff16905092915050565b6000801b81565b8173ffffffffffffffffffffffffffffffffffffffff16610fd7611745565b73ffffffffffffffffffffffffffffffffffffffff16141561102e576040517f08c379a0000000000000000000000000000000000000000000000000000000008152600401611025906143bd565b60405180910390fd5b806003600061103b611745565b73ffffffffffffffffffffffffffffffffffffffff1673ffffffffffffffffffffffffffffffffffffffff16815260200190815260200160002060008473ffffffffffffffffffffffffffffffffffffffff1673ffffffffffffffffffffffffffffffffffffffff16815260200190815260200160002060006101000a81548160ff0219169083151502179055508173ffffffffffffffffffffffffffffffffffffffff166110e8611745565b73ffffffffffffffffffffffffffffffffffffffff167f17307eab39ab6107e8899845ad3d59bd9653f200f220920489ca2b5937696c318360405161112d9190614125565b60405180910390a35050565b6000611156600160008481526020019081526020016000206122b5565b9050919050565b7f9f2df0fed2c77648de5860a4cc508cd0818c85b8b8a1ab4ceeef8d981c8956a681565b61118b82826122ca565b6111b08160016000858152602001908152602001600020611c8790919063ffffffff16565b505050565b7f65d7a28e3265b37a6474929f336521b332c1681b933f6cb9f3376673440d862a81565b6000600360008473ffffffffffffffffffffffffffffffffffffffff1673ffffffffffffffffffffffffffffffffffffffff16815260200190815260200160002060008373ffffffffffffffffffffffffffffffffffffffff1673ffffffffffffffffffffffffffffffffffffffff16815260200190815260200160002060009054906101000a900460ff16905092915050565b600073ffffffffffffffffffffffffffffffffffffffff168473ffffffffffffffffffffffffffffffffffffffff1614156112dd576040517f08c379a00000000000000000000000000000000000000000000000000000000081526004016112d4906142dd565b60405180910390fd5b6112e5611745565b73ffffffffffffffffffffffffffffffffffffffff168573ffffffffffffffffffffffffffffffffffffffff16148061132b575061132a85611325611745565b6111d9565b5b61136a576040517f08c379a00000000000000000000000000000000000000000000000000000000081526004016113619061427d565b60405180910390fd5b6000611374611745565b905061139481878761138588612330565b61138e88612330565b876119b8565b60006002600086815260200190815260200160002060008873ffffffffffffffffffffffffffffffffffffffff1673ffffffffffffffffffffffffffffffffffffffff1681526020019081526020016000205490508381101561142c576040517f08c379a00000000000000000000000000000000000000000000000000000000081526004016114239061435d565b60405180910390fd5b83816114389190614621565b6002600087815260200190815260200160002060008973ffffffffffffffffffffffffffffffffffffffff1673ffffffffffffffffffffffffffffffffffffffff16815260200190815260200160002081905550836002600087815260200190815260200160002060008873ffffffffffffffffffffffffffffffffffffffff1673ffffffffffffffffffffffffffffffffffffffff16815260200190815260200160002060008282546114ec91906145cb565b925050819055508573ffffffffffffffffffffffffffffffffffffffff168773ffffffffffffffffffffffffffffffffffffffff168373ffffffffffffffffffffffffffffffffffffffff167fc3d58168c5ae7397731d063d5bbf3d657854427343f4c083240f7aacaa2d0f628888604051611569929190614478565b60405180910390a461157f8288888888886123f6565b50505050505050565b611590611745565b73ffffffffffffffffffffffffffffffffffffffff168373ffffffffffffffffffffffffffffffffffffffff1614806115d657506115d5836115d0611745565b6111d9565b5b611615576040517f08c379a000000000000000000000000000000000000000000000000000000000815260040161160c9061427d565b60405180910390fd5b6116208383836125c6565b505050565b61162f82826127ee565b5050565b600061165b836000018373ffffffffffffffffffffffffffffffffffffffff1660001b6128ce565b905092915050565b60007fd9b67a26000000000000000000000000000000000000000000000000000000007bffffffffffffffffffffffffffffffffffffffffffffffffffffffff1916827bffffffffffffffffffffffffffffffffffffffffffffffffffffffff1916148061172e57507f0e89341c000000000000000000000000000000000000000000000000000000007bffffffffffffffffffffffffffffffffffffffffffffffffffffffff1916827bffffffffffffffffffffffffffffffffffffffffffffffffffffffff1916145b8061173e575061173d8261293e565b5b9050919050565b600033905090565b600073ffffffffffffffffffffffffffffffffffffffff168473ffffffffffffffffffffffffffffffffffffffff1614156117bd576040517f08c379a00000000000000000000000000000000000000000000000000000000081526004016117b49061441d565b60405180910390fd5b8151835114611801576040517f08c379a00000000000000000000000000000000000000000000000000000000081526004016117f8906143fd565b60405180910390fd5b600061180b611745565b905061181c816000878787876119b8565b60005b845181101561192257838181518110611861577f4e487b7100000000000000000000000000000000000000000000000000000000600052603260045260246000fd5b6020026020010151600260008784815181106118a6577f4e487b7100000000000000000000000000000000000000000000000000000000600052603260045260246000fd5b6020026020010151815260200190815260200160002060008873ffffffffffffffffffffffffffffffffffffffff1673ffffffffffffffffffffffffffffffffffffffff168152602001908152602001600020600082825461190891906145cb565b92505081905550808061191a90614747565b91505061181f565b508473ffffffffffffffffffffffffffffffffffffffff16600073ffffffffffffffffffffffffffffffffffffffff168273ffffffffffffffffffffffffffffffffffffffff167f4a39dc06d4c0dbc64b70af90fd698a233a518aa5d07e595d983b8c0526c8f7fb878760405161199a9291906140ee565b60405180910390a46119b1816000878787876119ce565b5050505050565b6119c68686868686866129b8565b505050505050565b6119ed8473ffffffffffffffffffffffffffffffffffffffff16612a16565b15611b96578373ffffffffffffffffffffffffffffffffffffffff1663bc197c8187878686866040518663ffffffff1660e01b8152600401611a3395949392919061400a565b602060405180830381600087803b158015611a4d57600080fd5b505af1925050508015611a7e57506040513d601f19601f82011682018060405250810190611a7b919061358c565b60015b611b0d57611a8a61483b565b80611a955750611ad2565b806040517f08c379a0000000000000000000000000000000000000000000000000000000008152600401611ac9919061415b565b60405180910390fd5b6040517f08c379a0000000000000000000000000000000000000000000000000000000008152600401611b049061417d565b60405180910390fd5b63bc197c8160e01b7bffffffffffffffffffffffffffffffffffffffffffffffffffffffff1916817bffffffffffffffffffffffffffffffffffffffffffffffffffffffff191614611b94576040517f08c379a0000000000000000000000000000000000000000000000000000000008152600401611b8b906141bd565b60405180910390fd5b505b505050505050565b611bb7611baa836106bd565b611bb2611745565b610f47565b611bf6576040517f08c379a0000000000000000000000000000000000000000000000000000000008152600401611bed906141dd565b60405180910390fd5b611c0082826127ee565b5050565b611c0c611745565b73ffffffffffffffffffffffffffffffffffffffff168173ffffffffffffffffffffffffffffffffffffffff1614611c79576040517f08c379a0000000000000000000000000000000000000000000000000000000008152600401611c709061443d565b60405180910390fd5b611c838282612a29565b5050565b6000611caf836000018373ffffffffffffffffffffffffffffffffffffffff1660001b612b0a565b905092915050565b611cbf610d68565b611cfe576040517f08c379a0000000000000000000000000000000000000000000000000000000008152600401611cf5906141fd565b60405180910390fd5b6000600560006101000a81548160ff0219169083151502179055507f5db9ee0a495bf2e6ff9c91a7834c1ba4fdd244a5e8aa4e537bd38aeae4b073aa611d42611745565b604051611d4f9190613fef565b60405180910390a1565b600073ffffffffffffffffffffffffffffffffffffffff168373ffffffffffffffffffffffffffffffffffffffff161415611dc9576040517f08c379a0000000000000000000000000000000000000000000000000000000008152600401611dc09061431d565b60405180910390fd5b8051825114611e0d576040517f08c379a0000000000000000000000000000000000000000000000000000000008152600401611e04906143fd565b60405180910390fd5b6000611e17611745565b9050611e37818560008686604051806020016040528060008152506119b8565b60005b8351811015611fdb576000848281518110611e7e577f4e487b7100000000000000000000000000000000000000000000000000000000600052603260045260246000fd5b602002602001015190506000848381518110611ec3577f4e487b7100000000000000000000000000000000000000000000000000000000600052603260045260246000fd5b6020026020010151905060006002600084815260200190815260200160002060008973ffffffffffffffffffffffffffffffffffffffff1673ffffffffffffffffffffffffffffffffffffffff16815260200190815260200160002054905081811015611f65576040517f08c379a0000000000000000000000000000000000000000000000000000000008152600401611f5c9061423d565b60405180910390fd5b8181611f719190614621565b6002600085815260200190815260200160002060008a73ffffffffffffffffffffffffffffffffffffffff1673ffffffffffffffffffffffffffffffffffffffff168152602001908152602001600020819055505050508080611fd390614747565b915050611e3a565b50600073ffffffffffffffffffffffffffffffffffffffff168473ffffffffffffffffffffffffffffffffffffffff168273ffffffffffffffffffffffffffffffffffffffff167f4a39dc06d4c0dbc64b70af90fd698a233a518aa5d07e595d983b8c0526c8f7fb86866040516120539291906140ee565b60405180910390a450505050565b600073ffffffffffffffffffffffffffffffffffffffff168473ffffffffffffffffffffffffffffffffffffffff1614156120d1576040517f08c379a00000000000000000000000000000000000000000000000000000000081526004016120c89061441d565b60405180910390fd5b60006120db611745565b90506120fc816000876120ed88612330565b6120f688612330565b876119b8565b826002600086815260200190815260200160002060008773ffffffffffffffffffffffffffffffffffffffff1673ffffffffffffffffffffffffffffffffffffffff168152602001908152602001600020600082825461215c91906145cb565b925050819055508473ffffffffffffffffffffffffffffffffffffffff16600073ffffffffffffffffffffffffffffffffffffffff168273ffffffffffffffffffffffffffffffffffffffff167fc3d58168c5ae7397731d063d5bbf3d657854427343f4c083240f7aacaa2d0f6287876040516121da929190614478565b60405180910390a46121f1816000878787876123f6565b5050505050565b612200610d68565b15612240576040517f08c379a0000000000000000000000000000000000000000000000000000000008152600401612237906142bd565b60405180910390fd5b6001600560006101000a81548160ff0219169083151502179055507f62e78cea01bee320cd4e420270b5ea74000d11b0c9f74754ebdbfc544b05a258612284611745565b6040516122919190613fef565b60405180910390a1565b60006122aa8360000183612c94565b60001c905092915050565b60006122c382600001612d2e565b9050919050565b6122e36122d6836106bd565b6122de611745565b610f47565b612322576040517f08c379a00000000000000000000000000000000000000000000000000000000081526004016123199061429d565b60405180910390fd5b61232c8282612a29565b5050565b60606000600167ffffffffffffffff811115612375577f4e487b7100000000000000000000000000000000000000000000000000000000600052604160045260246000fd5b6040519080825280602002602001820160405280156123a35781602001602082028036833780820191505090505b50905082816000815181106123e1577f4e487b7100000000000000000000000000000000000000000000000000000000600052603260045260246000fd5b60200260200101818152505080915050919050565b6124158473ffffffffffffffffffffffffffffffffffffffff16612a16565b156125be578373ffffffffffffffffffffffffffffffffffffffff1663f23a6e6187878686866040518663ffffffff1660e01b815260040161245b959493929190614072565b602060405180830381600087803b15801561247557600080fd5b505af19250505080156124a657506040513d601f19601f820116820180604052508101906124a3919061358c565b60015b612535576124b261483b565b806124bd57506124fa565b806040517f08c379a00000000000000000000000000000000000000000000000000000000081526004016124f1919061415b565b60405180910390fd5b6040517f08c379a000000000000000000000000000000000000000000000000000000000815260040161252c9061417d565b60405180910390fd5b63f23a6e6160e01b7bffffffffffffffffffffffffffffffffffffffffffffffffffffffff1916817bffffffffffffffffffffffffffffffffffffffffffffffffffffffff1916146125bc576040517f08c379a00000000000000000000000000000000000000000000000000000000081526004016125b3906141bd565b60405180910390fd5b505b505050505050565b600073ffffffffffffffffffffffffffffffffffffffff168373ffffffffffffffffffffffffffffffffffffffff161415612636576040517f08c379a000000000000000000000000000000000000000000000000000000000815260040161262d9061431d565b60405180910390fd5b6000612640611745565b90506126708185600061265287612330565b61265b87612330565b604051806020016040528060008152506119b8565b60006002600085815260200190815260200160002060008673ffffffffffffffffffffffffffffffffffffffff1673ffffffffffffffffffffffffffffffffffffffff16815260200190815260200160002054905082811015612708576040517f08c379a00000000000000000000000000000000000000000000000000000000081526004016126ff9061423d565b60405180910390fd5b82816127149190614621565b6002600086815260200190815260200160002060008773ffffffffffffffffffffffffffffffffffffffff1673ffffffffffffffffffffffffffffffffffffffff16815260200190815260200160002081905550600073ffffffffffffffffffffffffffffffffffffffff168573ffffffffffffffffffffffffffffffffffffffff168373ffffffffffffffffffffffffffffffffffffffff167fc3d58168c5ae7397731d063d5bbf3d657854427343f4c083240f7aacaa2d0f6287876040516127df929190614478565b60405180910390a45050505050565b6127f88282610f47565b6128ca57600160008084815260200190815260200160002060000160008373ffffffffffffffffffffffffffffffffffffffff1673ffffffffffffffffffffffffffffffffffffffff16815260200190815260200160002060006101000a81548160ff02191690831515021790555061286f611745565b73ffffffffffffffffffffffffffffffffffffffff168173ffffffffffffffffffffffffffffffffffffffff16837f2f8788117e7eff1d82e926ec794901d17c78024a50270940304540a733656f0d60405160405180910390a45b5050565b60006128da8383612d3f565b612933578260000182908060018154018082558091505060019003906000526020600020016000909190919091505582600001805490508360010160008481526020019081526020016000208190555060019050612938565b600090505b92915050565b60007f5a05180f000000000000000000000000000000000000000000000000000000007bffffffffffffffffffffffffffffffffffffffffffffffffffffffff1916827bffffffffffffffffffffffffffffffffffffffffffffffffffffffff191614806129b157506129b082612d62565b5b9050919050565b6129c6868686868686612ddc565b6129ce610d68565b15612a0e576040517f08c379a0000000000000000000000000000000000000000000000000000000008152600401612a059061425d565b60405180910390fd5b505050505050565b600080823b905060008111915050919050565b612a338282610f47565b15612b0657600080600084815260200190815260200160002060000160008373ffffffffffffffffffffffffffffffffffffffff1673ffffffffffffffffffffffffffffffffffffffff16815260200190815260200160002060006101000a81548160ff021916908315150217905550612aab611745565b73ffffffffffffffffffffffffffffffffffffffff168173ffffffffffffffffffffffffffffffffffffffff16837ff6391f5c32d9c69d2a47ea670b442974b53935d1edc7fd64eb21e047a839171b60405160405180910390a45b5050565b60008083600101600084815260200190815260200160002054905060008114612c88576000600182612b3c9190614621565b9050600060018660000180549050612b549190614621565b90506000866000018281548110612b94577f4e487b7100000000000000000000000000000000000000000000000000000000600052603260045260246000fd5b9060005260206000200154905080876000018481548110612bde577f4e487b7100000000000000000000000000000000000000000000000000000000600052603260045260246000fd5b9060005260206000200181905550600183612bf991906145cb565b8760010160008381526020019081526020016000208190555086600001805480612c4c577f4e487b7100000000000000000000000000000000000000000000000000000000600052603160045260246000fd5b60019003818190600052602060002001600090559055866001016000878152602001908152602001600020600090556001945050505050612c8e565b60009150505b92915050565b600081836000018054905011612cdf576040517f08c379a0000000000000000000000000000000000000000000000000000000008152600401612cd69061419d565b60405180910390fd5b826000018281548110612d1b577f4e487b7100000000000000000000000000000000000000000000000000000000600052603260045260246000fd5b9060005260206000200154905092915050565b600081600001805490509050919050565b600080836001016000848152602001908152602001600020541415905092915050565b60007f7965db0b000000000000000000000000000000000000000000000000000000007bffffffffffffffffffffffffffffffffffffffffffffffffffffffff1916827bffffffffffffffffffffffffffffffffffffffffffffffffffffffff19161480612dd55750612dd482612de4565b5b9050919050565b505050505050565b60007f01ffc9a7000000000000000000000000000000000000000000000000000000007bffffffffffffffffffffffffffffffffffffffffffffffffffffffff1916827bffffffffffffffffffffffffffffffffffffffffffffffffffffffff1916149050919050565b6000612e61612e5c846144d2565b6144a1565b90508083825260208201905082856020860282011115612e8057600080fd5b60005b85811015612eb05781612e968882612f64565b845260208401935060208301925050600181019050612e83565b5050509392505050565b6000612ecd612ec8846144fe565b6144a1565b90508083825260208201905082856020860282011115612eec57600080fd5b60005b85811015612f1c5781612f02888261304b565b845260208401935060208301925050600181019050612eef565b5050509392505050565b6000612f39612f348461452a565b6144a1565b905082815260208101848484011115612f5157600080fd5b612f5c8482856146d3565b509392505050565b600081359050612f73816148f1565b92915050565b600082601f830112612f8a57600080fd5b8135612f9a848260208601612e4e565b91505092915050565b600082601f830112612fb457600080fd5b8135612fc4848260208601612eba565b91505092915050565b600081359050612fdc81614908565b92915050565b600081359050612ff18161491f565b92915050565b60008135905061300681614936565b92915050565b60008151905061301b81614936565b92915050565b600082601f83011261303257600080fd5b8135613042848260208601612f26565b91505092915050565b60008135905061305a8161494d565b92915050565b6000806040838503121561307357600080fd5b600061308185828601612f64565b925050602061309285828601612f64565b9150509250929050565b600080600080600060a086880312156130b457600080fd5b60006130c288828901612f64565b95505060206130d388828901612f64565b945050604086013567ffffffffffffffff8111156130f057600080fd5b6130fc88828901612fa3565b935050606086013567ffffffffffffffff81111561311957600080fd5b61312588828901612fa3565b925050608086013567ffffffffffffffff81111561314257600080fd5b61314e88828901613021565b9150509295509295909350565b600080600080600060a0868803121561317357600080fd5b600061318188828901612f64565b955050602061319288828901612f64565b94505060406131a38882890161304b565b93505060606131b48882890161304b565b925050608086013567ffffffffffffffff8111156131d157600080fd5b6131dd88828901613021565b9150509295509295909350565b6000806000606084860312156131ff57600080fd5b600061320d86828701612f64565b935050602084013567ffffffffffffffff81111561322a57600080fd5b61323686828701612fa3565b925050604084013567ffffffffffffffff81111561325357600080fd5b61325f86828701612fa3565b9150509250925092565b6000806000806080858703121561327f57600080fd5b600061328d87828801612f64565b945050602085013567ffffffffffffffff8111156132aa57600080fd5b6132b687828801612fa3565b935050604085013567ffffffffffffffff8111156132d357600080fd5b6132df87828801612fa3565b925050606085013567ffffffffffffffff8111156132fc57600080fd5b61330887828801613021565b91505092959194509250565b6000806040838503121561332757600080fd5b600061333585828601612f64565b925050602061334685828601612fcd565b9150509250929050565b6000806040838503121561336357600080fd5b600061337185828601612f64565b92505060206133828582860161304b565b9150509250929050565b6000806000606084860312156133a157600080fd5b60006133af86828701612f64565b93505060206133c08682870161304b565b92505060406133d18682870161304b565b9150509250925092565b600080600080608085870312156133f157600080fd5b60006133ff87828801612f64565b94505060206134108782880161304b565b93505060406134218782880161304b565b925050606085013567ffffffffffffffff81111561343e57600080fd5b61344a87828801613021565b91505092959194509250565b6000806040838503121561346957600080fd5b600083013567ffffffffffffffff81111561348357600080fd5b61348f85828601612f79565b925050602083013567ffffffffffffffff8111156134ac57600080fd5b6134b885828601612fa3565b9150509250929050565b6000602082840312156134d457600080fd5b60006134e284828501612fe2565b91505092915050565b600080604083850312156134fe57600080fd5b600061350c85828601612fe2565b925050602061351d85828601612f64565b9150509250929050565b6000806040838503121561353a57600080fd5b600061354885828601612fe2565b92505060206135598582860161304b565b9150509250929050565b60006020828403121561357557600080fd5b600061358384828501612ff7565b91505092915050565b60006020828403121561359e57600080fd5b60006135ac8482850161300c565b91505092915050565b6000602082840312156135c757600080fd5b60006135d58482850161304b565b91505092915050565b60006135ea8383613fd1565b60208301905092915050565b6135ff81614655565b82525050565b60006136108261456a565b61361a8185614598565b93506136258361455a565b8060005b8381101561365657815161363d88826135de565b97506136488361458b565b925050600181019050613629565b5085935050505092915050565b61366c81614667565b82525050565b61367b81614673565b82525050565b600061368c82614575565b61369681856145a9565b93506136a68185602086016146e2565b6136af8161481d565b840191505092915050565b60006136c582614580565b6136cf81856145ba565b93506136df8185602086016146e2565b6136e88161481d565b840191505092915050565b60006137006034836145ba565b91507f455243313135353a207472616e7366657220746f206e6f6e204552433131353560008301527f526563656976657220696d706c656d656e7465720000000000000000000000006020830152604082019050919050565b60006137666022836145ba565b91507f456e756d657261626c655365743a20696e646578206f7574206f6620626f756e60008301527f64730000000000000000000000000000000000000000000000000000000000006020830152604082019050919050565b60006137cc6028836145ba565b91507f455243313135353a204552433131353552656365697665722072656a6563746560008301527f6420746f6b656e730000000000000000000000000000000000000000000000006020830152604082019050919050565b6000613832602f836145ba565b91507f416363657373436f6e74726f6c3a2073656e646572206d75737420626520616e60008301527f2061646d696e20746f206772616e7400000000000000000000000000000000006020830152604082019050919050565b60006138986014836145ba565b91507f5061757361626c653a206e6f74207061757365640000000000000000000000006000830152602082019050919050565b60006138d8602b836145ba565b91507f455243313135353a2062616c616e636520717565727920666f7220746865207a60008301527f65726f20616464726573730000000000000000000000000000000000000000006020830152604082019050919050565b600061393e6024836145ba565b91507f455243313135353a206275726e20616d6f756e7420657863656564732062616c60008301527f616e6365000000000000000000000000000000000000000000000000000000006020830152604082019050919050565b60006139a4602c836145ba565b91507f455243313135355061757361626c653a20746f6b656e207472616e736665722060008301527f7768696c652070617573656400000000000000000000000000000000000000006020830152604082019050919050565b6000613a0a6029836145ba565b91507f455243313135353a2063616c6c6572206973206e6f74206f776e6572206e6f7260008301527f20617070726f76656400000000000000000000000000000000000000000000006020830152604082019050919050565b6000613a706030836145ba565b91507f416363657373436f6e74726f6c3a2073656e646572206d75737420626520616e60008301527f2061646d696e20746f207265766f6b65000000000000000000000000000000006020830152604082019050919050565b6000613ad66010836145ba565b91507f5061757361626c653a20706175736564000000000000000000000000000000006000830152602082019050919050565b6000613b166025836145ba565b91507f455243313135353a207472616e7366657220746f20746865207a65726f20616460008301527f64726573730000000000000000000000000000000000000000000000000000006020830152604082019050919050565b6000613b7c6032836145ba565b91507f455243313135353a207472616e736665722063616c6c6572206973206e6f742060008301527f6f776e6572206e6f7220617070726f76656400000000000000000000000000006020830152604082019050919050565b6000613be26023836145ba565b91507f455243313135353a206275726e2066726f6d20746865207a65726f206164647260008301527f65737300000000000000000000000000000000000000000000000000000000006020830152604082019050919050565b6000613c486038836145ba565b91507f455243313135355072657365744d696e7465725061757365723a206d7573742060008301527f68617665206d696e74657220726f6c6520746f206d696e7400000000000000006020830152604082019050919050565b6000613cae602a836145ba565b91507f455243313135353a20696e73756666696369656e742062616c616e636520666f60008301527f72207472616e73666572000000000000000000000000000000000000000000006020830152604082019050919050565b6000613d14603b836145ba565b91507f455243313135355072657365744d696e7465725061757365723a206d7573742060008301527f686176652070617573657220726f6c6520746f20756e706175736500000000006020830152604082019050919050565b6000613d7a6039836145ba565b91507f455243313135355072657365744d696e7465725061757365723a206d7573742060008301527f686176652070617573657220726f6c6520746f207061757365000000000000006020830152604082019050919050565b6000613de06029836145ba565b91507f455243313135353a2073657474696e6720617070726f76616c2073746174757360008301527f20666f722073656c6600000000000000000000000000000000000000000000006020830152604082019050919050565b6000613e466029836145ba565b91507f455243313135353a206163636f756e747320616e6420696473206c656e67746860008301527f206d69736d6174636800000000000000000000000000000000000000000000006020830152604082019050919050565b6000613eac6028836145ba565b91507f455243313135353a2069647320616e6420616d6f756e7473206c656e6774682060008301527f6d69736d617463680000000000000000000000000000000000000000000000006020830152604082019050919050565b6000613f126021836145ba565b91507f455243313135353a206d696e7420746f20746865207a65726f2061646472657360008301527f73000000000000000000000000000000000000000000000000000000000000006020830152604082019050919050565b6000613f78602f836145ba565b91507f416363657373436f6e74726f6c3a2063616e206f6e6c792072656e6f756e636560008301527f20726f6c657320666f722073656c6600000000000000000000000000000000006020830152604082019050919050565b613fda816146c9565b82525050565b613fe9816146c9565b82525050565b600060208201905061400460008301846135f6565b92915050565b600060a08201905061401f60008301886135f6565b61402c60208301876135f6565b818103604083015261403e8186613605565b905081810360608301526140528185613605565b905081810360808301526140668184613681565b90509695505050505050565b600060a08201905061408760008301886135f6565b61409460208301876135f6565b6140a16040830186613fe0565b6140ae6060830185613fe0565b81810360808301526140c08184613681565b90509695505050505050565b600060208201905081810360008301526140e68184613605565b905092915050565b600060408201905081810360008301526141088185613605565b9050818103602083015261411c8184613605565b90509392505050565b600060208201905061413a6000830184613663565b92915050565b60006020820190506141556000830184613672565b92915050565b6000602082019050818103600083015261417581846136ba565b905092915050565b60006020820190508181036000830152614196816136f3565b9050919050565b600060208201905081810360008301526141b681613759565b9050919050565b600060208201905081810360008301526141d6816137bf565b9050919050565b600060208201905081810360008301526141f681613825565b9050919050565b600060208201905081810360008301526142168161388b565b9050919050565b60006020820190508181036000830152614236816138cb565b9050919050565b6000602082019050818103600083015261425681613931565b9050919050565b6000602082019050818103600083015261427681613997565b9050919050565b60006020820190508181036000830152614296816139fd565b9050919050565b600060208201905081810360008301526142b681613a63565b9050919050565b600060208201905081810360008301526142d681613ac9565b9050919050565b600060208201905081810360008301526142f681613b09565b9050919050565b6000602082019050818103600083015261431681613b6f565b9050919050565b6000602082019050818103600083015261433681613bd5565b9050919050565b6000602082019050818103600083015261435681613c3b565b9050919050565b6000602082019050818103600083015261437681613ca1565b9050919050565b6000602082019050818103600083015261439681613d07565b9050919050565b600060208201905081810360008301526143b681613d6d565b9050919050565b600060208201905081810360008301526143d681613dd3565b9050919050565b600060208201905081810360008301526143f681613e39565b9050919050565b6000602082019050818103600083015261441681613e9f565b9050919050565b6000602082019050818103600083015261443681613f05565b9050919050565b6000602082019050818103600083015261445681613f6b565b9050919050565b60006020820190506144726000830184613fe0565b92915050565b600060408201905061448d6000830185613fe0565b61449a6020830184613fe0565b9392505050565b6000604051905081810181811067ffffffffffffffff821117156144c8576144c76147ee565b5b8060405250919050565b600067ffffffffffffffff8211156144ed576144ec6147ee565b5b602082029050602081019050919050565b600067ffffffffffffffff821115614519576145186147ee565b5b602082029050602081019050919050565b600067ffffffffffffffff821115614545576145446147ee565b5b601f19601f8301169050602081019050919050565b6000819050602082019050919050565b600081519050919050565b600081519050919050565b600081519050919050565b6000602082019050919050565b600082825260208201905092915050565b600082825260208201905092915050565b600082825260208201905092915050565b60006145d6826146c9565b91506145e1836146c9565b9250827fffffffffffffffffffffffffffffffffffffffffffffffffffffffffffffffff0382111561461657614615614790565b5b828201905092915050565b600061462c826146c9565b9150614637836146c9565b92508282101561464a57614649614790565b5b828203905092915050565b6000614660826146a9565b9050919050565b60008115159050919050565b6000819050919050565b60007fffffffff0000000000000000000000000000000000000000000000000000000082169050919050565b600073ffffffffffffffffffffffffffffffffffffffff82169050919050565b6000819050919050565b82818337600083830152505050565b60005b838110156147005780820151818401526020810190506146e5565b8381111561470f576000848401525b50505050565b6000600282049050600182168061472d57607f821691505b60208210811415614741576147406147bf565b5b50919050565b6000614752826146c9565b91507fffffffffffffffffffffffffffffffffffffffffffffffffffffffffffffffff82141561478557614784614790565b5b600182019050919050565b7f4e487b7100000000000000000000000000000000000000000000000000000000600052601160045260246000fd5b7f4e487b7100000000000000000000000000000000000000000000000000000000600052602260045260246000fd5b7f4e487b7100000000000000000000000000000000000000000000000000000000600052604160045260246000fd5b6000601f19601f8301169050919050565b60008160e01c9050919050565b600060443d101561484b576148ee565b60046000803e61485c60005161482e565b6308c379a0811461486d57506148ee565b60405160043d036004823e80513d602482011167ffffffffffffffff82111715614899575050506148ee565b808201805167ffffffffffffffff8111156148b85750505050506148ee565b8060208301013d85018111156148d3575050505050506148ee565b6148dc8261481d565b60208401016040528296505050505050505b90565b6148fa81614655565b811461490557600080fd5b50565b61491181614667565b811461491c57600080fd5b50565b61492881614673565b811461493357600080fd5b50565b61493f8161467d565b811461494a57600080fd5b50565b614956816146c9565b811461496157600080fd5b5056fea264697066735822122004ff19265fbf003f2af14bf80346e1a7b5861a1753d035e3d0583b0fcc1def0064736f6c63430008000033",
  "immutableReferences": {},
  "source": "// SPDX-License-Identifier: MIT\n\npragma solidity ^0.8.0;\n\nimport \"../ERC1155.sol\";\nimport \"../extensions/ERC1155Burnable.sol\";\nimport \"../extensions/ERC1155Pausable.sol\";\nimport \"../../../access/AccessControlEnumerable.sol\";\nimport \"../../../utils/Context.sol\";\n\n/**\n * @dev {ERC1155} token, including:\n *\n *  - ability for holders to burn (destroy) their tokens\n *  - a minter role that allows for token minting (creation)\n *  - a pauser role that allows to stop all token transfers\n *\n * This contract uses {AccessControl} to lock permissioned functions using the\n * different roles - head to its documentation for details.\n *\n * The account that deploys the contract will be granted the minter and pauser\n * roles, as well as the default admin role, which will let it grant both minter\n * and pauser roles to other accounts.\n */\ncontract ERC1155PresetMinterPauser is Context, AccessControlEnumerable, ERC1155Burnable, ERC1155Pausable {\n    bytes32 public constant MINTER_ROLE = keccak256(\"MINTER_ROLE\");\n    bytes32 public constant PAUSER_ROLE = keccak256(\"PAUSER_ROLE\");\n\n    /**\n     * @dev Grants `DEFAULT_ADMIN_ROLE`, `MINTER_ROLE`, and `PAUSER_ROLE` to the account that\n     * deploys the contract.\n     */\n    constructor(string memory uri) ERC1155(uri) {\n        _setupRole(DEFAULT_ADMIN_ROLE, _msgSender());\n\n        _setupRole(MINTER_ROLE, _msgSender());\n        _setupRole(PAUSER_ROLE, _msgSender());\n    }\n\n    /**\n     * @dev Creates `amount` new tokens for `to`, of token type `id`.\n     *\n     * See {ERC1155-_mint}.\n     *\n     * Requirements:\n     *\n     * - the caller must have the `MINTER_ROLE`.\n     */\n    function mint(address to, uint256 id, uint256 amount, bytes memory data) public virtual {\n        require(hasRole(MINTER_ROLE, _msgSender()), \"ERC1155PresetMinterPauser: must have minter role to mint\");\n\n        _mint(to, id, amount, data);\n    }\n\n    /**\n     * @dev xref:ROOT:erc1155.adoc#batch-operations[Batched] variant of {mint}.\n     */\n    function mintBatch(address to, uint256[] memory ids, uint256[] memory amounts, bytes memory data) public virtual {\n        require(hasRole(MINTER_ROLE, _msgSender()), \"ERC1155PresetMinterPauser: must have minter role to mint\");\n\n        _mintBatch(to, ids, amounts, data);\n    }\n\n    /**\n     * @dev Pauses all token transfers.\n     *\n     * See {ERC1155Pausable} and {Pausable-_pause}.\n     *\n     * Requirements:\n     *\n     * - the caller must have the `PAUSER_ROLE`.\n     */\n    function pause() public virtual {\n        require(hasRole(PAUSER_ROLE, _msgSender()), \"ERC1155PresetMinterPauser: must have pauser role to pause\");\n        _pause();\n    }\n\n    /**\n     * @dev Unpauses all token transfers.\n     *\n     * See {ERC1155Pausable} and {Pausable-_unpause}.\n     *\n     * Requirements:\n     *\n     * - the caller must have the `PAUSER_ROLE`.\n     */\n    function unpause() public virtual {\n        require(hasRole(PAUSER_ROLE, _msgSender()), \"ERC1155PresetMinterPauser: must have pauser role to unpause\");\n        _unpause();\n    }\n\n    /**\n     * @dev See {IERC165-supportsInterface}.\n     */\n    function supportsInterface(bytes4 interfaceId) public view virtual override(AccessControlEnumerable, ERC1155) returns (bool) {\n        return super.supportsInterface(interfaceId);\n    }\n\n    function _beforeTokenTransfer(\n        address operator,\n        address from,\n        address to,\n        uint256[] memory ids,\n        uint256[] memory amounts,\n        bytes memory data\n    )\n        internal virtual override(ERC1155, ERC1155Pausable)\n    {\n        super._beforeTokenTransfer(operator, from, to, ids, amounts, data);\n    }\n}\n",
  "sourcePath": "/Users/tylersiravo/Documents/Documents/GitHub/OpenMint/contracts/node_modules/@openzeppelin/contracts/token/ERC1155/presets/ERC1155PresetMinterPauser.sol",
  "compiler": {
    "name": "solc",
    "version": "0.8.0+commit.c7dfd78e.Emscripten.clang"
  },
  "schemaVersion": "3.3.4",
  "updatedAt": "2021-04-23T21:04:18.046Z",
  "devdoc": {
    "details": "{ERC1155} token, including:  - ability for holders to burn (destroy) their tokens  - a minter role that allows for token minting (creation)  - a pauser role that allows to stop all token transfers This contract uses {AccessControl} to lock permissioned functions using the different roles - head to its documentation for details. The account that deploys the contract will be granted the minter and pauser roles, as well as the default admin role, which will let it grant both minter and pauser roles to other accounts.",
    "kind": "dev",
    "methods": {
      "balanceOf(address,uint256)": {
        "details": "See {IERC1155-balanceOf}. Requirements: - `account` cannot be the zero address."
      },
      "balanceOfBatch(address[],uint256[])": {
        "details": "See {IERC1155-balanceOfBatch}. Requirements: - `accounts` and `ids` must have the same length."
      },
      "constructor": {
        "details": "Grants `DEFAULT_ADMIN_ROLE`, `MINTER_ROLE`, and `PAUSER_ROLE` to the account that deploys the contract."
      },
      "getRoleAdmin(bytes32)": {
        "details": "Returns the admin role that controls `role`. See {grantRole} and {revokeRole}. To change a role's admin, use {_setRoleAdmin}."
      },
      "getRoleMember(bytes32,uint256)": {
        "details": "Returns one of the accounts that have `role`. `index` must be a value between 0 and {getRoleMemberCount}, non-inclusive. Role bearers are not sorted in any particular way, and their ordering may change at any point. WARNING: When using {getRoleMember} and {getRoleMemberCount}, make sure you perform all queries on the same block. See the following https://forum.openzeppelin.com/t/iterating-over-elements-on-enumerableset-in-openzeppelin-contracts/2296[forum post] for more information."
      },
      "getRoleMemberCount(bytes32)": {
        "details": "Returns the number of accounts that have `role`. Can be used together with {getRoleMember} to enumerate all bearers of a role."
      },
      "grantRole(bytes32,address)": {
        "details": "Overload {grantRole} to track enumerable memberships"
      },
      "hasRole(bytes32,address)": {
        "details": "Returns `true` if `account` has been granted `role`."
      },
      "isApprovedForAll(address,address)": {
        "details": "See {IERC1155-isApprovedForAll}."
      },
      "mint(address,uint256,uint256,bytes)": {
        "details": "Creates `amount` new tokens for `to`, of token type `id`. See {ERC1155-_mint}. Requirements: - the caller must have the `MINTER_ROLE`."
      },
      "mintBatch(address,uint256[],uint256[],bytes)": {
        "details": "xref:ROOT:erc1155.adoc#batch-operations[Batched] variant of {mint}."
      },
      "pause()": {
        "details": "Pauses all token transfers. See {ERC1155Pausable} and {Pausable-_pause}. Requirements: - the caller must have the `PAUSER_ROLE`."
      },
      "paused()": {
        "details": "Returns true if the contract is paused, and false otherwise."
      },
      "renounceRole(bytes32,address)": {
        "details": "Overload {renounceRole} to track enumerable memberships"
      },
      "revokeRole(bytes32,address)": {
        "details": "Overload {revokeRole} to track enumerable memberships"
      },
      "safeBatchTransferFrom(address,address,uint256[],uint256[],bytes)": {
        "details": "See {IERC1155-safeBatchTransferFrom}."
      },
      "safeTransferFrom(address,address,uint256,uint256,bytes)": {
        "details": "See {IERC1155-safeTransferFrom}."
      },
      "setApprovalForAll(address,bool)": {
        "details": "See {IERC1155-setApprovalForAll}."
      },
      "supportsInterface(bytes4)": {
        "details": "See {IERC165-supportsInterface}."
      },
      "unpause()": {
        "details": "Unpauses all token transfers. See {ERC1155Pausable} and {Pausable-_unpause}. Requirements: - the caller must have the `PAUSER_ROLE`."
      },
      "uri(uint256)": {
        "details": "See {IERC1155MetadataURI-uri}. This implementation returns the same URI for *all* token types. It relies on the token type ID substitution mechanism https://eips.ethereum.org/EIPS/eip-1155#metadata[defined in the EIP]. Clients calling this function must replace the `\\{id\\}` substring with the actual token type ID."
      }
    },
    "version": 1
  },
  "userdoc": {
    "kind": "user",
    "methods": {},
    "version": 1
  }
}