{
  "contractName": "OpenMintMarketplace",
  "abi": [
    {
      "inputs": [
        {
          "internalType": "address",
          "name": "_OpenMintContractAddress",
          "type": "address"
        },
        {
          "internalType": "address",
          "name": "_PaymentGatewayAddress",
          "type": "address"
        },
        {
          "internalType": "address payable",
          "name": "_publisherWallet",
          "type": "address"
        }
      ],
      "stateMutability": "nonpayable",
      "type": "constructor"
    },
    {
      "anonymous": false,
      "inputs": [
        {
          "indexed": true,
          "internalType": "address",
          "name": "previousOwner",
          "type": "address"
        },
        {
          "indexed": true,
          "internalType": "address",
          "name": "newOwner",
          "type": "address"
        }
      ],
      "name": "OwnershipTransferred",
      "type": "event"
    },
    {
      "anonymous": false,
      "inputs": [
        {
          "indexed": false,
          "internalType": "address",
          "name": "tokenAddress",
          "type": "address"
        },
        {
          "indexed": false,
          "internalType": "address",
          "name": "seller",
          "type": "address"
        },
        {
          "indexed": false,
          "internalType": "uint256",
          "name": "price",
          "type": "uint256"
        },
        {
          "indexed": false,
          "internalType": "uint256",
          "name": "tokenId",
          "type": "uint256"
        },
        {
          "indexed": false,
          "internalType": "uint256",
          "name": "offerId",
          "type": "uint256"
        },
        {
          "indexed": false,
          "internalType": "bool",
          "name": "isSold",
          "type": "bool"
        }
      ],
      "name": "artworkAdded",
      "type": "event"
    },
    {
      "anonymous": false,
      "inputs": [
        {
          "indexed": false,
          "internalType": "address",
          "name": "owner",
          "type": "address"
        },
        {
          "indexed": false,
          "internalType": "uint256",
          "name": "tokenId",
          "type": "uint256"
        },
        {
          "indexed": false,
          "internalType": "address",
          "name": "tokenAddress",
          "type": "address"
        }
      ],
      "name": "artworkRemoved",
      "type": "event"
    },
    {
      "anonymous": false,
      "inputs": [
        {
          "indexed": false,
          "internalType": "address",
          "name": "tokenAddress",
          "type": "address"
        },
        {
          "indexed": false,
          "internalType": "address",
          "name": "buyer",
          "type": "address"
        },
        {
          "indexed": false,
          "internalType": "uint256",
          "name": "price",
          "type": "uint256"
        },
        {
          "indexed": false,
          "internalType": "uint256",
          "name": "tokenId",
          "type": "uint256"
        },
        {
          "indexed": false,
          "internalType": "uint256",
          "name": "offerId",
          "type": "uint256"
        }
      ],
      "name": "artworkSold",
      "type": "event"
    },
    {
      "anonymous": false,
      "inputs": [
        {
          "indexed": false,
          "internalType": "address",
          "name": "owner",
          "type": "address"
        },
        {
          "indexed": false,
          "internalType": "uint256",
          "name": "price",
          "type": "uint256"
        },
        {
          "indexed": false,
          "internalType": "address",
          "name": "tokenAddress",
          "type": "address"
        },
        {
          "indexed": false,
          "internalType": "uint256",
          "name": "tokenId",
          "type": "uint256"
        },
        {
          "indexed": false,
          "internalType": "uint256",
          "name": "offerId",
          "type": "uint256"
        }
      ],
      "name": "priceChanged",
      "type": "event"
    },
    {
      "inputs": [
        {
          "internalType": "uint256",
          "name": "",
          "type": "uint256"
        }
      ],
      "name": "offers",
      "outputs": [
        {
          "internalType": "address payable",
          "name": "seller",
          "type": "address"
        },
        {
          "internalType": "address",
          "name": "tokenAddress",
          "type": "address"
        },
        {
          "internalType": "uint256",
          "name": "price",
          "type": "uint256"
        },
        {
          "internalType": "uint256",
          "name": "offerId",
          "type": "uint256"
        },
        {
          "internalType": "uint256",
          "name": "tokenId",
          "type": "uint256"
        },
        {
          "internalType": "bool",
          "name": "isSold",
          "type": "bool"
        },
        {
          "internalType": "bool",
          "name": "active",
          "type": "bool"
        }
      ],
      "stateMutability": "view",
      "type": "function"
    },
    {
      "inputs": [],
      "name": "owner",
      "outputs": [
        {
          "internalType": "address",
          "name": "",
          "type": "address"
        }
      ],
      "stateMutability": "view",
      "type": "function"
    },
    {
      "inputs": [],
      "name": "renounceOwnership",
      "outputs": [],
      "stateMutability": "nonpayable",
      "type": "function"
    },
    {
      "inputs": [
        {
          "internalType": "address",
          "name": "newOwner",
          "type": "address"
        }
      ],
      "name": "transferOwnership",
      "outputs": [],
      "stateMutability": "nonpayable",
      "type": "function"
    },
    {
      "inputs": [
        {
          "internalType": "uint256",
          "name": "price",
          "type": "uint256"
        },
        {
          "internalType": "uint256",
          "name": "tokenId",
          "type": "uint256"
        },
        {
          "internalType": "address",
          "name": "tokenAddress",
          "type": "address"
        }
      ],
      "name": "setOffer",
      "outputs": [],
      "stateMutability": "nonpayable",
      "type": "function"
    },
    {
      "inputs": [
        {
          "internalType": "uint256",
          "name": "newPrice",
          "type": "uint256"
        },
        {
          "internalType": "uint256",
          "name": "tokenId",
          "type": "uint256"
        },
        {
          "internalType": "address",
          "name": "tokenAddress",
          "type": "address"
        }
      ],
      "name": "changePrice",
      "outputs": [],
      "stateMutability": "nonpayable",
      "type": "function"
    },
    {
      "inputs": [
        {
          "internalType": "uint256",
          "name": "tokenId",
          "type": "uint256"
        },
        {
          "internalType": "address",
          "name": "tokenAddress",
          "type": "address"
        }
      ],
      "name": "removeOffer",
      "outputs": [],
      "stateMutability": "nonpayable",
      "type": "function"
    },
    {
      "inputs": [
        {
          "internalType": "uint256",
          "name": "tokenId",
          "type": "uint256"
        },
        {
          "internalType": "address",
          "name": "tokenAddress",
          "type": "address"
        }
      ],
      "name": "buyArt",
      "outputs": [],
      "stateMutability": "payable",
      "type": "function"
    }
  ],
  "bytecode": "0x60806040523480156200001157600080fd5b5060405162002d2338038062002d23833981810160405281019062000037919062000358565b6000620000496200015360201b60201c565b9050806000806101000a81548173ffffffffffffffffffffffffffffffffffffffff021916908373ffffffffffffffffffffffffffffffffffffffff1602179055508073ffffffffffffffffffffffffffffffffffffffff16600073ffffffffffffffffffffffffffffffffffffffff167f8be0079c531659141344cd1fd0a4f28419497f9722a3daafe3b4186f6b6457e060405160405180910390a350620000f8836200015b60201b60201c565b62000109826200022e60201b60201c565b80600360006101000a81548173ffffffffffffffffffffffffffffffffffffffff021916908373ffffffffffffffffffffffffffffffffffffffff1602179055505050506200049f565b600033905090565b6200016b6200015360201b60201c565b73ffffffffffffffffffffffffffffffffffffffff16620001916200030160201b60201c565b73ffffffffffffffffffffffffffffffffffffffff1614620001ea576040517f08c379a0000000000000000000000000000000000000000000000000000000008152600401620001e190620003f0565b60405180910390fd5b80600160006101000a81548173ffffffffffffffffffffffffffffffffffffffff021916908373ffffffffffffffffffffffffffffffffffffffff16021790555050565b6200023e6200015360201b60201c565b73ffffffffffffffffffffffffffffffffffffffff16620002646200030160201b60201c565b73ffffffffffffffffffffffffffffffffffffffff1614620002bd576040517f08c379a0000000000000000000000000000000000000000000000000000000008152600401620002b490620003f0565b60405180910390fd5b80600260006101000a81548173ffffffffffffffffffffffffffffffffffffffff021916908373ffffffffffffffffffffffffffffffffffffffff16021790555050565b60008060009054906101000a900473ffffffffffffffffffffffffffffffffffffffff16905090565b6000815190506200033b816200046b565b92915050565b600081519050620003528162000485565b92915050565b6000806000606084860312156200036e57600080fd5b60006200037e868287016200032a565b935050602062000391868287016200032a565b9250506040620003a48682870162000341565b9150509250925092565b6000620003bd60208362000412565b91507f4f776e61626c653a2063616c6c6572206973206e6f7420746865206f776e65726000830152602082019050919050565b600060208201905081810360008301526200040b81620003ae565b9050919050565b600082825260208201905092915050565b600062000430826200044b565b9050919050565b600062000444826200044b565b9050919050565b600073ffffffffffffffffffffffffffffffffffffffff82169050919050565b620004768162000423565b81146200048257600080fd5b50565b620004908162000437565b81146200049c57600080fd5b50565b61287480620004af6000396000f3fe60806040526004361061007b5760003560e01c80638da5cb5b1161004e5780638da5cb5b1461012c578063a7ac187d14610157578063a8c7e55314610173578063f2fde38b1461019c5761007b565b80632cbb7de81461008057806367865fc9146100a9578063715018a6146100d25780638a72ea6a146100e9575b600080fd5b34801561008c57600080fd5b506100a760048036038101906100a29190611d8b565b6101c5565b005b3480156100b557600080fd5b506100d060048036038101906100cb9190611dc7565b610411565b005b3480156100de57600080fd5b506100e7610a2e565b005b3480156100f557600080fd5b50610110600480360381019061010b9190611d62565b610b68565b604051610123979695949392919061228f565b60405180910390f35b34801561013857600080fd5b50610141610c14565b60405161014e9190612222565b60405180910390f35b610171600480360381019061016c9190611d8b565b610c3d565b005b34801561017f57600080fd5b5061019a60048036038101906101959190611dc7565b611309565b005b3480156101a857600080fd5b506101c360048036038101906101be9190611cbe565b6116b0565b005b3373ffffffffffffffffffffffffffffffffffffffff16600460056000858152602001908152602001600020600301548154811061022c577f4e487b7100000000000000000000000000000000000000000000000000000000600052603260045260246000fd5b906000526020600020906006020160000160009054906101000a900473ffffffffffffffffffffffffffffffffffffffff1673ffffffffffffffffffffffffffffffffffffffff16146102b4576040517f08c379a00000000000000000000000000000000000000000000000000000000081526004016102ab90612545565b60405180910390fd5b60006004600560008581526020019081526020016000206003015481548110610306577f4e487b7100000000000000000000000000000000000000000000000000000000600052603260045260246000fd5b906000526020600020906006020160050160016101000a81548160ff02191690831515021790555060056000838152602001908152602001600020600080820160006101000a81549073ffffffffffffffffffffffffffffffffffffffff02191690556001820160006101000a81549073ffffffffffffffffffffffffffffffffffffffff02191690556002820160009055600382016000905560048201600090556005820160006101000a81549060ff02191690556005820160016101000a81549060ff021916905550507fb145ac242c9dc4c9768587b48644186e79bbba78ba09f97b8ac28ef7e88bfe49338383604051610405939291906123db565b60405180910390a15050565b3373ffffffffffffffffffffffffffffffffffffffff16600160009054906101000a900473ffffffffffffffffffffffffffffffffffffffff1673ffffffffffffffffffffffffffffffffffffffff16636352211e846040518263ffffffff1660e01b815260040161048391906125e5565b60206040518083038186803b15801561049b57600080fd5b505afa1580156104af573d6000803e3d6000fd5b505050506040513d601f19601f820116820180604052508101906104d39190611ce7565b73ffffffffffffffffffffffffffffffffffffffff1614610529576040517f08c379a000000000000000000000000000000000000000000000000000000000815260040161052090612585565b60405180910390fd5b60011515600160009054906101000a900473ffffffffffffffffffffffffffffffffffffffff1673ffffffffffffffffffffffffffffffffffffffff1663e985e9c533306040518363ffffffff1660e01b815260040161058a9291906122fe565b60206040518083038186803b1580156105a257600080fd5b505afa1580156105b6573d6000803e3d6000fd5b505050506040513d601f19601f820116820180604052508101906105da9190611d39565b15151461061c576040517f08c379a000000000000000000000000000000000000000000000000000000000815260040161061390612505565b60405180910390fd5b6000831161065f576040517f08c379a0000000000000000000000000000000000000000000000000000000008152600401610656906125a5565b60405180910390fd5b600015156005600084815260200190815260200160002060050160019054906101000a900460ff161515146106c9576040517f08c379a00000000000000000000000000000000000000000000000000000000081526004016106c0906124e5565b60405180910390fd5b600015156005600084815260200190815260200160002060050160009054906101000a900460ff16151514610733576040517f08c379a000000000000000000000000000000000000000000000000000000000815260040161072a906125c5565b60405180910390fd5b6000600480549050905060006040518060e001604052803373ffffffffffffffffffffffffffffffffffffffff1681526020018473ffffffffffffffffffffffffffffffffffffffff168152602001868152602001838152602001858152602001600015158152602001600115158152509050806005600086815260200190815260200160002060008201518160000160006101000a81548173ffffffffffffffffffffffffffffffffffffffff021916908373ffffffffffffffffffffffffffffffffffffffff16021790555060208201518160010160006101000a81548173ffffffffffffffffffffffffffffffffffffffff021916908373ffffffffffffffffffffffffffffffffffffffff16021790555060408201518160020155606082015181600301556080820151816004015560a08201518160050160006101000a81548160ff02191690831515021790555060c08201518160050160016101000a81548160ff021916908315150217905550905050600481908060018154018082558091505060019003906000526020600020906006020160009091909190915060008201518160000160006101000a81548173ffffffffffffffffffffffffffffffffffffffff021916908373ffffffffffffffffffffffffffffffffffffffff16021790555060208201518160010160006101000a81548173ffffffffffffffffffffffffffffffffffffffff021916908373ffffffffffffffffffffffffffffffffffffffff16021790555060408201518160020155606082015181600301556080820151816004015560a08201518160050160006101000a81548160ff02191690831515021790555060c08201518160050160016101000a81548160ff02191690831515021790555050507fe4fc1df94f958435faa33a1b9ea91d711e8057731912c8165df808a53a57145d600160009054906101000a900473ffffffffffffffffffffffffffffffffffffffff16338787866000604051610a1f9695949392919061237a565b60405180910390a15050505050565b610a36611859565b73ffffffffffffffffffffffffffffffffffffffff16610a54610c14565b73ffffffffffffffffffffffffffffffffffffffff1614610aaa576040517f08c379a0000000000000000000000000000000000000000000000000000000008152600401610aa190612525565b60405180910390fd5b600073ffffffffffffffffffffffffffffffffffffffff1660008054906101000a900473ffffffffffffffffffffffffffffffffffffffff1673ffffffffffffffffffffffffffffffffffffffff167f8be0079c531659141344cd1fd0a4f28419497f9722a3daafe3b4186f6b6457e060405160405180910390a360008060006101000a81548173ffffffffffffffffffffffffffffffffffffffff021916908373ffffffffffffffffffffffffffffffffffffffff160217905550565b60048181548110610b7857600080fd5b90600052602060002090600602016000915090508060000160009054906101000a900473ffffffffffffffffffffffffffffffffffffffff16908060010160009054906101000a900473ffffffffffffffffffffffffffffffffffffffff16908060020154908060030154908060040154908060050160009054906101000a900460ff16908060050160019054906101000a900460ff16905087565b60008060009054906101000a900473ffffffffffffffffffffffffffffffffffffffff16905090565b6000600560008481526020019081526020016000206040518060e00160405290816000820160009054906101000a900473ffffffffffffffffffffffffffffffffffffffff1673ffffffffffffffffffffffffffffffffffffffff1673ffffffffffffffffffffffffffffffffffffffff1681526020016001820160009054906101000a900473ffffffffffffffffffffffffffffffffffffffff1673ffffffffffffffffffffffffffffffffffffffff1673ffffffffffffffffffffffffffffffffffffffff1681526020016002820154815260200160038201548152602001600482015481526020016005820160009054906101000a900460ff161515151581526020016005820160019054906101000a900460ff1615151515815250509050346004826060015181548110610d9e577f4e487b7100000000000000000000000000000000000000000000000000000000600052603260045260246000fd5b90600052602060002090600602016002015414610df0576040517f08c379a0000000000000000000000000000000000000000000000000000000008152600401610de7906124c5565b60405180910390fd5b3373ffffffffffffffffffffffffffffffffffffffff166004826060015181548110610e45577f4e487b7100000000000000000000000000000000000000000000000000000000600052603260045260246000fd5b906000526020600020906006020160000160009054906101000a900473ffffffffffffffffffffffffffffffffffffffff1673ffffffffffffffffffffffffffffffffffffffff161415610ece576040517f08c379a0000000000000000000000000000000000000000000000000000000008152600401610ec5906124a5565b60405180910390fd5b600115156004826060015181548110610f10577f4e487b7100000000000000000000000000000000000000000000000000000000600052603260045260246000fd5b906000526020600020906006020160050160019054906101000a900460ff16151514610f71576040517f08c379a0000000000000000000000000000000000000000000000000000000008152600401610f6890612565565b60405180910390fd5b60056000848152602001908152602001600020600080820160006101000a81549073ffffffffffffffffffffffffffffffffffffffff02191690556001820160006101000a81549073ffffffffffffffffffffffffffffffffffffffff02191690556002820160009055600382016000905560048201600090556005820160006101000a81549060ff02191690556005820160016101000a81549060ff0219169055505060016004826060015181548110611055577f4e487b7100000000000000000000000000000000000000000000000000000000600052603260045260246000fd5b906000526020600020906006020160050160006101000a81548160ff021916908315150217905550600060048260600151815481106110bd577f4e487b7100000000000000000000000000000000000000000000000000000000600052603260045260246000fd5b906000526020600020906006020160050160016101000a81548160ff021916908315150217905550600160009054906101000a900473ffffffffffffffffffffffffffffffffffffffff1673ffffffffffffffffffffffffffffffffffffffff166342842e0e826000015133866040518463ffffffff1660e01b815260040161114893929190612258565b600060405180830381600087803b15801561116257600080fd5b505af1158015611176573d6000803e3d6000fd5b505050506111d88360048360600151815481106111bc577f4e487b7100000000000000000000000000000000000000000000000000000000600052603260045260246000fd5b9060005260206000209060060201600201548360000151611861565b7f1aa1ee4be14aa12897a092a50c2f334382a543045e1fa1a17c619698b71674ee82336004846060015181548110611239577f4e487b7100000000000000000000000000000000000000000000000000000000600052603260045260246000fd5b9060005260206000209060060201600201546004856060015181548110611289577f4e487b7100000000000000000000000000000000000000000000000000000000600052603260045260246000fd5b90600052602060002090600602016004015460048660600151815481106112d9577f4e487b7100000000000000000000000000000000000000000000000000000000600052603260045260246000fd5b9060005260206000209060060201600301546040516112fc959493929190612327565b60405180910390a1505050565b3373ffffffffffffffffffffffffffffffffffffffff166004600560008581526020019081526020016000206003015481548110611370577f4e487b7100000000000000000000000000000000000000000000000000000000600052603260045260246000fd5b906000526020600020906006020160000160009054906101000a900473ffffffffffffffffffffffffffffffffffffffff1673ffffffffffffffffffffffffffffffffffffffff16146113f8576040517f08c379a00000000000000000000000000000000000000000000000000000000081526004016113ef90612485565b60405180910390fd5b6000831161143b576040517f08c379a0000000000000000000000000000000000000000000000000000000008152600401611432906125a5565b60405180910390fd5b60011515600460056000858152602001908152602001600020600301548154811061148f577f4e487b7100000000000000000000000000000000000000000000000000000000600052603260045260246000fd5b906000526020600020906006020160050160019054906101000a900460ff161515146114f0576040517f08c379a00000000000000000000000000000000000000000000000000000000081526004016114e790612565565b60405180910390fd5b600015156004600560008581526020019081526020016000206003015481548110611544577f4e487b7100000000000000000000000000000000000000000000000000000000600052603260045260246000fd5b906000526020600020906006020160050160009054906101000a900460ff161515146115a5576040517f08c379a000000000000000000000000000000000000000000000000000000000815260040161159c906125c5565b60405180910390fd5b8260046005600085815260200190815260200160002060030154815481106115f6577f4e487b7100000000000000000000000000000000000000000000000000000000600052603260045260246000fd5b9060005260206000209060060201600201819055507f1b24a2fc4699c6fc65fe189be7dc682be029ba108d26a20d236860cbb27c04ba338483856004600560008981526020019081526020016000206003015481548110611680577f4e487b7100000000000000000000000000000000000000000000000000000000600052603260045260246000fd5b9060005260206000209060060201600301546040516116a3959493929190612412565b60405180910390a1505050565b6116b8611859565b73ffffffffffffffffffffffffffffffffffffffff166116d6610c14565b73ffffffffffffffffffffffffffffffffffffffff161461172c576040517f08c379a000000000000000000000000000000000000000000000000000000000815260040161172390612525565b60405180910390fd5b600073ffffffffffffffffffffffffffffffffffffffff168173ffffffffffffffffffffffffffffffffffffffff16141561179c576040517f08c379a000000000000000000000000000000000000000000000000000000000815260040161179390612465565b60405180910390fd5b8073ffffffffffffffffffffffffffffffffffffffff1660008054906101000a900473ffffffffffffffffffffffffffffffffffffffff1673ffffffffffffffffffffffffffffffffffffffff167f8be0079c531659141344cd1fd0a4f28419497f9722a3daafe3b4186f6b6457e060405160405180910390a3806000806101000a81548173ffffffffffffffffffffffffffffffffffffffff021916908373ffffffffffffffffffffffffffffffffffffffff16021790555050565b600033905090565b6000600160009054906101000a900473ffffffffffffffffffffffffffffffffffffffff1673ffffffffffffffffffffffffffffffffffffffff16631af9cf49856040518263ffffffff1660e01b81526004016118be91906125e5565b60206040518083038186803b1580156118d657600080fd5b505afa1580156118ea573d6000803e3d6000fd5b505050506040513d601f19601f8201168201806040525081019061190e9190611e16565b9050600061191c8483611bd9565b9050600061192985611c03565b90506000611952826119448589611c2a90919063ffffffff16565b611c2a90919063ffffffff16565b90506000600160009054906101000a900473ffffffffffffffffffffffffffffffffffffffff1673ffffffffffffffffffffffffffffffffffffffff1663d48e638a896040518263ffffffff1660e01b81526004016119b191906125e5565b60206040518083038186803b1580156119c957600080fd5b505afa1580156119dd573d6000803e3d6000fd5b505050506040513d601f19601f82011682018060405250810190611a019190611d10565b9050600260009054906101000a900473ffffffffffffffffffffffffffffffffffffffff1673ffffffffffffffffffffffffffffffffffffffff16638a7644a885836040518363ffffffff1660e01b8152600401611a5f919061223d565b6000604051808303818588803b158015611a7857600080fd5b505af1158015611a8c573d6000803e3d6000fd5b5050505050600260009054906101000a900473ffffffffffffffffffffffffffffffffffffffff1673ffffffffffffffffffffffffffffffffffffffff16638a7644a883886040518363ffffffff1660e01b8152600401611aed919061223d565b6000604051808303818588803b158015611b0657600080fd5b505af1158015611b1a573d6000803e3d6000fd5b5050505050600260009054906101000a900473ffffffffffffffffffffffffffffffffffffffff1673ffffffffffffffffffffffffffffffffffffffff16638a7644a884600360009054906101000a900473ffffffffffffffffffffffffffffffffffffffff166040518363ffffffff1660e01b8152600401611b9d919061223d565b6000604051808303818588803b158015611bb657600080fd5b505af1158015611bca573d6000803e3d6000fd5b50505050505050505050505050565b60008060648360ff1685611bed9190612642565b611bf79190612611565b90508091505092915050565b6000806064600284611c159190612642565b611c1f9190612611565b905080915050919050565b60008183611c38919061269c565b905092915050565b600081359050611c4f816127cb565b92915050565b600081519050611c64816127cb565b92915050565b600081519050611c79816127e2565b92915050565b600081519050611c8e816127f9565b92915050565b600081359050611ca381612810565b92915050565b600081519050611cb881612827565b92915050565b600060208284031215611cd057600080fd5b6000611cde84828501611c40565b91505092915050565b600060208284031215611cf957600080fd5b6000611d0784828501611c55565b91505092915050565b600060208284031215611d2257600080fd5b6000611d3084828501611c6a565b91505092915050565b600060208284031215611d4b57600080fd5b6000611d5984828501611c7f565b91505092915050565b600060208284031215611d7457600080fd5b6000611d8284828501611c94565b91505092915050565b60008060408385031215611d9e57600080fd5b6000611dac85828601611c94565b9250506020611dbd85828601611c40565b9150509250929050565b600080600060608486031215611ddc57600080fd5b6000611dea86828701611c94565b9350506020611dfb86828701611c94565b9250506040611e0c86828701611c40565b9150509250925092565b600060208284031215611e2857600080fd5b6000611e3684828501611ca9565b91505092915050565b611e4881612737565b82525050565b611e57816126e2565b82525050565b611e66816126d0565b82525050565b611e75816126f4565b82525050565b6000611e88602683612600565b91507f4f776e61626c653a206e6577206f776e657220697320746865207a65726f206160008301527f64647265737300000000000000000000000000000000000000000000000000006020830152604082019050919050565b6000611eee600e83612600565b91507f4d7573742062652073656c6c65720000000000000000000000000000000000006000830152602082019050919050565b6000611f2e601b83612600565b91507f43616e6e6f742062757920796f7572206f776e20617274776f726b00000000006000830152602082019050919050565b6000611f6e602983612600565b91507f5061796d656e74206d75737420626520657175616c20746f207072696365206f60008301527f66207468652061727400000000000000000000000000000000000000000000006020830152604082019050919050565b6000611fd4601783612600565b91507f4974656d20697320616c7265616479206f6e2073616c650000000000000000006000830152602082019050919050565b6000612014601483612600565b91507f4e6f7420617070726f76656420746f2073656c6c0000000000000000000000006000830152602082019050919050565b6000612054602083612600565b91507f4f776e61626c653a2063616c6c6572206973206e6f7420746865206f776e65726000830152602082019050919050565b6000612094602b83612600565b91507f4d757374206265207468652073656c6c65722f6f776e657220746f2072656d6f60008301527f766520616e206f666665720000000000000000000000000000000000000000006020830152604082019050919050565b60006120fa601483612600565b91507f4f66666572206d757374206265206163746976650000000000000000000000006000830152602082019050919050565b600061213a603383612600565b91507f4f6e6c7920746865206f776e6572206f662074686520617274776f726b20697360008301527f20616c6c6f77656420746f20646f2074686973000000000000000000000000006020830152604082019050919050565b60006121a0601683612600565b91507f4e6f2066726565206172742068657265206275646479000000000000000000006000830152602082019050919050565b60006121e0601183612600565b91507f4974656d20616c726561647920736f6c640000000000000000000000000000006000830152602082019050919050565b61221c81612720565b82525050565b60006020820190506122376000830184611e5d565b92915050565b60006020820190506122526000830184611e3f565b92915050565b600060608201905061226d6000830186611e3f565b61227a6020830185611e5d565b6122876040830184612213565b949350505050565b600060e0820190506122a4600083018a611e4e565b6122b16020830189611e5d565b6122be6040830188612213565b6122cb6060830187612213565b6122d86080830186612213565b6122e560a0830185611e6c565b6122f260c0830184611e6c565b98975050505050505050565b60006040820190506123136000830185611e5d565b6123206020830184611e5d565b9392505050565b600060a08201905061233c6000830188611e5d565b6123496020830187611e5d565b6123566040830186612213565b6123636060830185612213565b6123706080830184612213565b9695505050505050565b600060c08201905061238f6000830189611e5d565b61239c6020830188611e5d565b6123a96040830187612213565b6123b66060830186612213565b6123c36080830185612213565b6123d060a0830184611e6c565b979650505050505050565b60006060820190506123f06000830186611e5d565b6123fd6020830185612213565b61240a6040830184611e5d565b949350505050565b600060a0820190506124276000830188611e5d565b6124346020830187612213565b6124416040830186611e5d565b61244e6060830185612213565b61245b6080830184612213565b9695505050505050565b6000602082019050818103600083015261247e81611e7b565b9050919050565b6000602082019050818103600083015261249e81611ee1565b9050919050565b600060208201905081810360008301526124be81611f21565b9050919050565b600060208201905081810360008301526124de81611f61565b9050919050565b600060208201905081810360008301526124fe81611fc7565b9050919050565b6000602082019050818103600083015261251e81612007565b9050919050565b6000602082019050818103600083015261253e81612047565b9050919050565b6000602082019050818103600083015261255e81612087565b9050919050565b6000602082019050818103600083015261257e816120ed565b9050919050565b6000602082019050818103600083015261259e8161212d565b9050919050565b600060208201905081810360008301526125be81612193565b9050919050565b600060208201905081810360008301526125de816121d3565b9050919050565b60006020820190506125fa6000830184612213565b92915050565b600082825260208201905092915050565b600061261c82612720565b915061262783612720565b9250826126375761263661279c565b5b828204905092915050565b600061264d82612720565b915061265883612720565b9250817fffffffffffffffffffffffffffffffffffffffffffffffffffffffffffffffff04831182151516156126915761269061276d565b5b828202905092915050565b60006126a782612720565b91506126b283612720565b9250828210156126c5576126c461276d565b5b828203905092915050565b60006126db82612700565b9050919050565b60006126ed82612700565b9050919050565b60008115159050919050565b600073ffffffffffffffffffffffffffffffffffffffff82169050919050565b6000819050919050565b600060ff82169050919050565b600061274282612749565b9050919050565b60006127548261275b565b9050919050565b600061276682612700565b9050919050565b7f4e487b7100000000000000000000000000000000000000000000000000000000600052601160045260246000fd5b7f4e487b7100000000000000000000000000000000000000000000000000000000600052601260045260246000fd5b6127d4816126d0565b81146127df57600080fd5b50565b6127eb816126e2565b81146127f657600080fd5b50565b612802816126f4565b811461280d57600080fd5b50565b61281981612720565b811461282457600080fd5b50565b6128308161272a565b811461283b57600080fd5b5056fea2646970667358221220f86230b887fa62da5bac64898688a05c9b8867f792082433aca71ea00776e91a64736f6c63430008000033",
  "immutableReferences": {},
  "source": "// SPDX-License-Identifier: MIT\n\npragma solidity ^0.8.0;\n\nimport \"./node_modules/@openzeppelin/contracts/access/Ownable.sol\";\nimport \"./OpenMint.sol\";\nimport \"./node_modules/@openzeppelin/contracts/utils/math/SafeMath.sol\";\nimport \"./PaymentGateway.sol\";\n\ncontract OpenMintMarketplace is Ownable {\n  using SafeMath for uint256;\n\n  OpenMint private _OpenMint;\n  PaymentGateway private _PaymentGateway;\n  address payable publisherWallet;\n\n  struct Offer{\n    address payable seller;\n    address tokenAddress;\n    uint256 price;\n    uint256 offerId;\n    uint256 tokenId;\n    bool isSold;\n    bool active;\n  }\n\n  Offer[] public offers;\n\n  mapping(uint256 => Offer) tokenIdToOffer;\n\n  event artworkAdded(address tokenAddress, address seller, uint256 price, uint256 tokenId, uint256 offerId, bool isSold);\n  event artworkSold(address tokenAddress, address buyer, uint256 price, uint256 tokenId, uint256 offerId);\n  event priceChanged(address owner, uint256 price, address tokenAddress, uint256 tokenId, uint256 offerId);\n  event artworkRemoved(address owner, uint256 tokenId, address tokenAddress);\n\n  constructor(address _OpenMintContractAddress, address _PaymentGatewayAddress, address payable _publisherWallet) {\n    _setOpenMintContract(_OpenMintContractAddress);\n    _setPaymentGatewayContract(_PaymentGatewayAddress);\n    publisherWallet = _publisherWallet;\n  }\n\n  function _setPaymentGatewayContract(address _PaymentGatewayAddress) internal onlyOwner{\n    _PaymentGateway = PaymentGateway(_PaymentGatewayAddress);\n  }\n\n  function _setOpenMintContract(address _OpenMintContractAddress) internal onlyOwner{\n    _OpenMint = OpenMint(_OpenMintContractAddress);\n  }\n\n  function setOffer(uint256 price, uint256 tokenId, address tokenAddress) public{\n    require(_OpenMint.ownerOf(tokenId) == msg.sender, \"Only the owner of the artwork is allowed to do this\");\n    require(_OpenMint.isApprovedForAll(msg.sender, address(this)) == true, \"Not approved to sell\");\n    require(price > 0, \"No free art here buddy\");\n    require(tokenIdToOffer[tokenId].active == false, \"Item is already on sale\");\n    require(tokenIdToOffer[tokenId].isSold == false, \"Item already sold\");\n\n    uint256 offerId = offers.length;\n\n    Offer memory offer = Offer(payable(msg.sender), tokenAddress, price, offerId, tokenId, false, true);\n\n    tokenIdToOffer[tokenId] = offer;\n\n    offers.push(offer);\n\n    emit artworkAdded(address(_OpenMint), msg.sender, price, tokenId, offerId, false);\n  }\n\n  function changePrice(uint256 newPrice, uint256 tokenId, address tokenAddress) public{\n    require(offers[tokenIdToOffer[tokenId].offerId].seller == msg.sender, \"Must be seller\");\n    require(newPrice > 0, \"No free art here buddy\");\n    require(offers[tokenIdToOffer[tokenId].offerId].active == true, \"Offer must be active\");\n    require(offers[tokenIdToOffer[tokenId].offerId].isSold == false, \"Item already sold\");\n\n    offers[tokenIdToOffer[tokenId].offerId].price = newPrice;\n\n    emit priceChanged(msg.sender, newPrice, tokenAddress, tokenId, offers[tokenIdToOffer[tokenId].offerId].offerId);\n  }\n\n  function removeOffer(uint256 tokenId, address tokenAddress) public{\n    require(offers[tokenIdToOffer[tokenId].offerId].seller == msg.sender, \"Must be the seller/owner to remove an offer\");\n\n    offers[tokenIdToOffer[tokenId].offerId].active = false;\n    delete tokenIdToOffer[tokenId];\n\n    emit artworkRemoved(msg.sender, tokenId, tokenAddress);\n  }\n\n  function buyArt(uint256 tokenId, address tokenAddress) public payable{\n    Offer memory offer = tokenIdToOffer[tokenId];\n    require(offers[offer.offerId].price == msg.value, \"Payment must be equal to price of the art\");\n    require(offers[offer.offerId].seller != msg.sender, \"Cannot buy your own artwork\");\n    require(offers[offer.offerId].active == true, \"Offer must be active\");\n\n    delete tokenIdToOffer[tokenId];\n    offers[offer.offerId].isSold = true;\n    offers[offer.offerId].active = false;\n\n    _OpenMint.safeTransferFrom(offer.seller, msg.sender, tokenId);\n\n    _distributeFees(tokenId, offers[offer.offerId].price, offer.seller);\n\n    emit artworkSold(tokenAddress, msg.sender, offers[offer.offerId].price, offers[offer.offerId].tokenId, offers[offer.offerId].offerId);\n  }\n\n  function _computeCreatorFee(uint256 price, uint8 royalty) internal pure returns(uint256){\n    uint256 creatorFee = price * royalty / 100;\n    return creatorFee;\n  }\n\n  function _computePublisherFee(uint256 price) internal pure returns(uint256){\n    uint256 publisherFee = price * 2 / 100;\n    return publisherFee;\n  }\n\n  function _distributeFees(uint256 tokenId, uint256 price, address payable seller) internal{\n    uint8 creatorRoyalty = _OpenMint.getRoyalty(tokenId);\n    uint256 creatorFee = _computeCreatorFee(price, creatorRoyalty);\n    uint256 publisherFee = _computePublisherFee(price);\n    uint256 payment = uint256(price.sub(creatorFee).sub(publisherFee));\n\n    address payable creator = _OpenMint.getCreator(tokenId);\n\n    _PaymentGateway.sendPayment{value: creatorFee}(creator);\n    _PaymentGateway.sendPayment{value: payment}(seller);\n    _PaymentGateway.sendPayment{value: publisherFee}(publisherWallet);\n  }\n}\n",
  "sourcePath": "/Users/tylersiravo/Documents/Documents/GitHub/OpenMint/contracts/OpenMintMarketplace.sol",
  "compiler": {
    "name": "solc",
    "version": "0.8.0+commit.c7dfd78e.Emscripten.clang"
  },
  "schemaVersion": "3.3.4",
  "updatedAt": "2021-06-02T00:16:27.076Z",
  "devdoc": {
    "kind": "dev",
    "methods": {
      "owner()": {
        "details": "Returns the address of the current owner."
      },
      "renounceOwnership()": {
        "details": "Leaves the contract without owner. It will not be possible to call `onlyOwner` functions anymore. Can only be called by the current owner. NOTE: Renouncing ownership will leave the contract without an owner, thereby removing any functionality that is only available to the owner."
      },
      "transferOwnership(address)": {
        "details": "Transfers ownership of the contract to a new account (`newOwner`). Can only be called by the current owner."
      }
    },
    "version": 1
  },
  "userdoc": {
    "kind": "user",
    "methods": {},
    "version": 1
  }
}