{
  "contractName": "OpenMintMarketplace",
  "abi": [
    {
      "inputs": [
        {
          "internalType": "address",
          "name": "_OpenMintContractAddress",
          "type": "address"
        },
        {
          "internalType": "address",
          "name": "_PaymentGatewayAddress",
          "type": "address"
        },
        {
          "internalType": "address payable",
          "name": "_publisherWallet",
          "type": "address"
        }
      ],
      "stateMutability": "nonpayable",
      "type": "constructor"
    },
    {
      "anonymous": false,
      "inputs": [
        {
          "indexed": true,
          "internalType": "address",
          "name": "previousOwner",
          "type": "address"
        },
        {
          "indexed": true,
          "internalType": "address",
          "name": "newOwner",
          "type": "address"
        }
      ],
      "name": "OwnershipTransferred",
      "type": "event"
    },
    {
      "anonymous": false,
      "inputs": [
        {
          "indexed": false,
          "internalType": "address",
          "name": "tokenAddress",
          "type": "address"
        },
        {
          "indexed": false,
          "internalType": "address",
          "name": "seller",
          "type": "address"
        },
        {
          "indexed": false,
          "internalType": "uint256",
          "name": "price",
          "type": "uint256"
        },
        {
          "indexed": false,
          "internalType": "uint256",
          "name": "tokenId",
          "type": "uint256"
        },
        {
          "indexed": false,
          "internalType": "uint256",
          "name": "offerId",
          "type": "uint256"
        },
        {
          "indexed": false,
          "internalType": "bool",
          "name": "isSold",
          "type": "bool"
        }
      ],
      "name": "artworkAdded",
      "type": "event"
    },
    {
      "anonymous": false,
      "inputs": [
        {
          "indexed": false,
          "internalType": "address",
          "name": "owner",
          "type": "address"
        },
        {
          "indexed": false,
          "internalType": "uint256",
          "name": "tokenId",
          "type": "uint256"
        },
        {
          "indexed": false,
          "internalType": "address",
          "name": "tokenAddress",
          "type": "address"
        }
      ],
      "name": "artworkRemoved",
      "type": "event"
    },
    {
      "anonymous": false,
      "inputs": [
        {
          "indexed": false,
          "internalType": "address",
          "name": "tokenAddress",
          "type": "address"
        },
        {
          "indexed": false,
          "internalType": "address",
          "name": "buyer",
          "type": "address"
        },
        {
          "indexed": false,
          "internalType": "uint256",
          "name": "price",
          "type": "uint256"
        },
        {
          "indexed": false,
          "internalType": "uint256",
          "name": "tokenId",
          "type": "uint256"
        },
        {
          "indexed": false,
          "internalType": "uint256",
          "name": "offerId",
          "type": "uint256"
        }
      ],
      "name": "artworkSold",
      "type": "event"
    },
    {
      "anonymous": false,
      "inputs": [
        {
          "indexed": false,
          "internalType": "address",
          "name": "owner",
          "type": "address"
        },
        {
          "indexed": false,
          "internalType": "uint256",
          "name": "price",
          "type": "uint256"
        },
        {
          "indexed": false,
          "internalType": "address",
          "name": "tokenAddress",
          "type": "address"
        },
        {
          "indexed": false,
          "internalType": "uint256",
          "name": "tokenId",
          "type": "uint256"
        },
        {
          "indexed": false,
          "internalType": "uint256",
          "name": "offerId",
          "type": "uint256"
        }
      ],
      "name": "priceChanged",
      "type": "event"
    },
    {
      "inputs": [
        {
          "internalType": "uint256",
          "name": "",
          "type": "uint256"
        }
      ],
      "name": "offers",
      "outputs": [
        {
          "internalType": "address payable",
          "name": "seller",
          "type": "address"
        },
        {
          "internalType": "address",
          "name": "tokenAddress",
          "type": "address"
        },
        {
          "internalType": "uint256",
          "name": "price",
          "type": "uint256"
        },
        {
          "internalType": "uint256",
          "name": "offerId",
          "type": "uint256"
        },
        {
          "internalType": "uint256",
          "name": "tokenId",
          "type": "uint256"
        },
        {
          "internalType": "bool",
          "name": "isSold",
          "type": "bool"
        },
        {
          "internalType": "bool",
          "name": "active",
          "type": "bool"
        }
      ],
      "stateMutability": "view",
      "type": "function",
      "constant": true
    },
    {
      "inputs": [],
      "name": "owner",
      "outputs": [
        {
          "internalType": "address",
          "name": "",
          "type": "address"
        }
      ],
      "stateMutability": "view",
      "type": "function",
      "constant": true
    },
    {
      "inputs": [],
      "name": "renounceOwnership",
      "outputs": [],
      "stateMutability": "nonpayable",
      "type": "function"
    },
    {
      "inputs": [
        {
          "internalType": "address",
          "name": "newOwner",
          "type": "address"
        }
      ],
      "name": "transferOwnership",
      "outputs": [],
      "stateMutability": "nonpayable",
      "type": "function"
    },
    {
      "inputs": [
        {
          "internalType": "uint256",
          "name": "price",
          "type": "uint256"
        },
        {
          "internalType": "uint256",
          "name": "tokenId",
          "type": "uint256"
        },
        {
          "internalType": "address",
          "name": "tokenAddress",
          "type": "address"
        }
      ],
      "name": "setOffer",
      "outputs": [],
      "stateMutability": "nonpayable",
      "type": "function"
    },
    {
      "inputs": [
        {
          "internalType": "uint256",
          "name": "newPrice",
          "type": "uint256"
        },
        {
          "internalType": "uint256",
          "name": "tokenId",
          "type": "uint256"
        },
        {
          "internalType": "address",
          "name": "tokenAddress",
          "type": "address"
        }
      ],
      "name": "changePrice",
      "outputs": [],
      "stateMutability": "nonpayable",
      "type": "function"
    },
    {
      "inputs": [
        {
          "internalType": "uint256",
          "name": "tokenId",
          "type": "uint256"
        },
        {
          "internalType": "address",
          "name": "tokenAddress",
          "type": "address"
        }
      ],
      "name": "removeOffer",
      "outputs": [],
      "stateMutability": "nonpayable",
      "type": "function"
    },
    {
      "inputs": [
        {
          "internalType": "uint256",
          "name": "tokenId",
          "type": "uint256"
        },
        {
          "internalType": "address",
          "name": "tokenAddress",
          "type": "address"
        }
      ],
      "name": "buyArt",
      "outputs": [],
      "stateMutability": "payable",
      "type": "function",
      "payable": true
    }
  ],
  "bytecode": "0x60806040523480156200001157600080fd5b5060405162002e9838038062002e98833981810160405281019062000037919062000358565b6000620000496200015360201b60201c565b9050806000806101000a81548173ffffffffffffffffffffffffffffffffffffffff021916908373ffffffffffffffffffffffffffffffffffffffff1602179055508073ffffffffffffffffffffffffffffffffffffffff16600073ffffffffffffffffffffffffffffffffffffffff167f8be0079c531659141344cd1fd0a4f28419497f9722a3daafe3b4186f6b6457e060405160405180910390a350620000f8836200015b60201b60201c565b62000109826200022e60201b60201c565b80600360006101000a81548173ffffffffffffffffffffffffffffffffffffffff021916908373ffffffffffffffffffffffffffffffffffffffff1602179055505050506200049f565b600033905090565b6200016b6200015360201b60201c565b73ffffffffffffffffffffffffffffffffffffffff16620001916200030160201b60201c565b73ffffffffffffffffffffffffffffffffffffffff1614620001ea576040517f08c379a0000000000000000000000000000000000000000000000000000000008152600401620001e190620003f0565b60405180910390fd5b80600160006101000a81548173ffffffffffffffffffffffffffffffffffffffff021916908373ffffffffffffffffffffffffffffffffffffffff16021790555050565b6200023e6200015360201b60201c565b73ffffffffffffffffffffffffffffffffffffffff16620002646200030160201b60201c565b73ffffffffffffffffffffffffffffffffffffffff1614620002bd576040517f08c379a0000000000000000000000000000000000000000000000000000000008152600401620002b490620003f0565b60405180910390fd5b80600260006101000a81548173ffffffffffffffffffffffffffffffffffffffff021916908373ffffffffffffffffffffffffffffffffffffffff16021790555050565b60008060009054906101000a900473ffffffffffffffffffffffffffffffffffffffff16905090565b6000815190506200033b816200046b565b92915050565b600081519050620003528162000485565b92915050565b6000806000606084860312156200036e57600080fd5b60006200037e868287016200032a565b935050602062000391868287016200032a565b9250506040620003a48682870162000341565b9150509250925092565b6000620003bd60208362000412565b91507f4f776e61626c653a2063616c6c6572206973206e6f7420746865206f776e65726000830152602082019050919050565b600060208201905081810360008301526200040b81620003ae565b9050919050565b600082825260208201905092915050565b600062000430826200044b565b9050919050565b600062000444826200044b565b9050919050565b600073ffffffffffffffffffffffffffffffffffffffff82169050919050565b620004768162000423565b81146200048257600080fd5b50565b620004908162000437565b81146200049c57600080fd5b50565b6129e980620004af6000396000f3fe60806040526004361061007b5760003560e01c80638da5cb5b1161004e5780638da5cb5b1461012c578063a7ac187d14610157578063a8c7e55314610173578063f2fde38b1461019c5761007b565b80632cbb7de81461008057806367865fc9146100a9578063715018a6146100d25780638a72ea6a146100e9575b600080fd5b34801561008c57600080fd5b506100a760048036038101906100a29190611e79565b6101c5565b005b3480156100b557600080fd5b506100d060048036038101906100cb9190611eb5565b610411565b005b3480156100de57600080fd5b506100e7610a82565b005b3480156100f557600080fd5b50610110600480360381019061010b9190611e50565b610bbc565b60405161012397969594939291906123c9565b60405180910390f35b34801561013857600080fd5b50610141610c68565b60405161014e919061235c565b60405180910390f35b610171600480360381019061016c9190611e79565b610c91565b005b34801561017f57600080fd5b5061019a60048036038101906101959190611eb5565b61135d565b005b3480156101a857600080fd5b506101c360048036038101906101be9190611dac565b6117c2565b005b3373ffffffffffffffffffffffffffffffffffffffff16600460056000858152602001908152602001600020600301548154811061022c577f4e487b7100000000000000000000000000000000000000000000000000000000600052603260045260246000fd5b906000526020600020906006020160000160009054906101000a900473ffffffffffffffffffffffffffffffffffffffff1673ffffffffffffffffffffffffffffffffffffffff16146102b4576040517f08c379a00000000000000000000000000000000000000000000000000000000081526004016102ab9061267f565b60405180910390fd5b60006004600560008581526020019081526020016000206003015481548110610306577f4e487b7100000000000000000000000000000000000000000000000000000000600052603260045260246000fd5b906000526020600020906006020160050160016101000a81548160ff02191690831515021790555060056000838152602001908152602001600020600080820160006101000a81549073ffffffffffffffffffffffffffffffffffffffff02191690556001820160006101000a81549073ffffffffffffffffffffffffffffffffffffffff02191690556002820160009055600382016000905560048201600090556005820160006101000a81549060ff02191690556005820160016101000a81549060ff021916905550507fb145ac242c9dc4c9768587b48644186e79bbba78ba09f97b8ac28ef7e88bfe4933838360405161040593929190612515565b60405180910390a15050565b6000600160009054906101000a900473ffffffffffffffffffffffffffffffffffffffff1673ffffffffffffffffffffffffffffffffffffffff16631af9cf49846040518263ffffffff1660e01b815260040161046e919061271f565b60206040518083038186803b15801561048657600080fd5b505afa15801561049a573d6000803e3d6000fd5b505050506040513d601f19601f820116820180604052508101906104be9190611f04565b90503373ffffffffffffffffffffffffffffffffffffffff16600160009054906101000a900473ffffffffffffffffffffffffffffffffffffffff1673ffffffffffffffffffffffffffffffffffffffff16636352211e856040518263ffffffff1660e01b8152600401610532919061271f565b60206040518083038186803b15801561054a57600080fd5b505afa15801561055e573d6000803e3d6000fd5b505050506040513d601f19601f820116820180604052508101906105829190611dd5565b73ffffffffffffffffffffffffffffffffffffffff16146105d8576040517f08c379a00000000000000000000000000000000000000000000000000000000081526004016105cf906126df565b60405180910390fd5b60011515600160009054906101000a900473ffffffffffffffffffffffffffffffffffffffff1673ffffffffffffffffffffffffffffffffffffffff1663e985e9c533306040518363ffffffff1660e01b8152600401610639929190612438565b60206040518083038186803b15801561065157600080fd5b505afa158015610665573d6000803e3d6000fd5b505050506040513d601f19601f820116820180604052508101906106899190611e27565b1515146106cb576040517f08c379a00000000000000000000000000000000000000000000000000000000081526004016106c29061263f565b60405180910390fd5b6003816106d891906127d6565b60ff16841161071c576040517f08c379a0000000000000000000000000000000000000000000000000000000008152600401610713906126bf565b60405180910390fd5b600015156005600085815260200190815260200160002060050160019054906101000a900460ff16151514610786576040517f08c379a000000000000000000000000000000000000000000000000000000000815260040161077d9061261f565b60405180910390fd5b6000600480549050905060006040518060e001604052803373ffffffffffffffffffffffffffffffffffffffff1681526020018573ffffffffffffffffffffffffffffffffffffffff168152602001878152602001838152602001868152602001600015158152602001600115158152509050806005600087815260200190815260200160002060008201518160000160006101000a81548173ffffffffffffffffffffffffffffffffffffffff021916908373ffffffffffffffffffffffffffffffffffffffff16021790555060208201518160010160006101000a81548173ffffffffffffffffffffffffffffffffffffffff021916908373ffffffffffffffffffffffffffffffffffffffff16021790555060408201518160020155606082015181600301556080820151816004015560a08201518160050160006101000a81548160ff02191690831515021790555060c08201518160050160016101000a81548160ff021916908315150217905550905050600481908060018154018082558091505060019003906000526020600020906006020160009091909190915060008201518160000160006101000a81548173ffffffffffffffffffffffffffffffffffffffff021916908373ffffffffffffffffffffffffffffffffffffffff16021790555060208201518160010160006101000a81548173ffffffffffffffffffffffffffffffffffffffff021916908373ffffffffffffffffffffffffffffffffffffffff16021790555060408201518160020155606082015181600301556080820151816004015560a08201518160050160006101000a81548160ff02191690831515021790555060c08201518160050160016101000a81548160ff02191690831515021790555050507fe4fc1df94f958435faa33a1b9ea91d711e8057731912c8165df808a53a57145d600160009054906101000a900473ffffffffffffffffffffffffffffffffffffffff16338888866000604051610a72969594939291906124b4565b60405180910390a1505050505050565b610a8a61196b565b73ffffffffffffffffffffffffffffffffffffffff16610aa8610c68565b73ffffffffffffffffffffffffffffffffffffffff1614610afe576040517f08c379a0000000000000000000000000000000000000000000000000000000008152600401610af59061265f565b60405180910390fd5b600073ffffffffffffffffffffffffffffffffffffffff1660008054906101000a900473ffffffffffffffffffffffffffffffffffffffff1673ffffffffffffffffffffffffffffffffffffffff167f8be0079c531659141344cd1fd0a4f28419497f9722a3daafe3b4186f6b6457e060405160405180910390a360008060006101000a81548173ffffffffffffffffffffffffffffffffffffffff021916908373ffffffffffffffffffffffffffffffffffffffff160217905550565b60048181548110610bcc57600080fd5b90600052602060002090600602016000915090508060000160009054906101000a900473ffffffffffffffffffffffffffffffffffffffff16908060010160009054906101000a900473ffffffffffffffffffffffffffffffffffffffff16908060020154908060030154908060040154908060050160009054906101000a900460ff16908060050160019054906101000a900460ff16905087565b60008060009054906101000a900473ffffffffffffffffffffffffffffffffffffffff16905090565b6000600560008481526020019081526020016000206040518060e00160405290816000820160009054906101000a900473ffffffffffffffffffffffffffffffffffffffff1673ffffffffffffffffffffffffffffffffffffffff1673ffffffffffffffffffffffffffffffffffffffff1681526020016001820160009054906101000a900473ffffffffffffffffffffffffffffffffffffffff1673ffffffffffffffffffffffffffffffffffffffff1673ffffffffffffffffffffffffffffffffffffffff1681526020016002820154815260200160038201548152602001600482015481526020016005820160009054906101000a900460ff161515151581526020016005820160019054906101000a900460ff1615151515815250509050346004826060015181548110610df2577f4e487b7100000000000000000000000000000000000000000000000000000000600052603260045260246000fd5b90600052602060002090600602016002015414610e44576040517f08c379a0000000000000000000000000000000000000000000000000000000008152600401610e3b906125ff565b60405180910390fd5b3373ffffffffffffffffffffffffffffffffffffffff166004826060015181548110610e99577f4e487b7100000000000000000000000000000000000000000000000000000000600052603260045260246000fd5b906000526020600020906006020160000160009054906101000a900473ffffffffffffffffffffffffffffffffffffffff1673ffffffffffffffffffffffffffffffffffffffff161415610f22576040517f08c379a0000000000000000000000000000000000000000000000000000000008152600401610f19906125df565b60405180910390fd5b600115156004826060015181548110610f64577f4e487b7100000000000000000000000000000000000000000000000000000000600052603260045260246000fd5b906000526020600020906006020160050160019054906101000a900460ff16151514610fc5576040517f08c379a0000000000000000000000000000000000000000000000000000000008152600401610fbc9061269f565b60405180910390fd5b60056000848152602001908152602001600020600080820160006101000a81549073ffffffffffffffffffffffffffffffffffffffff02191690556001820160006101000a81549073ffffffffffffffffffffffffffffffffffffffff02191690556002820160009055600382016000905560048201600090556005820160006101000a81549060ff02191690556005820160016101000a81549060ff02191690555050600160048260600151815481106110a9577f4e487b7100000000000000000000000000000000000000000000000000000000600052603260045260246000fd5b906000526020600020906006020160050160006101000a81548160ff02191690831515021790555060006004826060015181548110611111577f4e487b7100000000000000000000000000000000000000000000000000000000600052603260045260246000fd5b906000526020600020906006020160050160016101000a81548160ff021916908315150217905550600160009054906101000a900473ffffffffffffffffffffffffffffffffffffffff1673ffffffffffffffffffffffffffffffffffffffff166342842e0e826000015133866040518463ffffffff1660e01b815260040161119c93929190612392565b600060405180830381600087803b1580156111b657600080fd5b505af11580156111ca573d6000803e3d6000fd5b5050505061122c836004836060015181548110611210577f4e487b7100000000000000000000000000000000000000000000000000000000600052603260045260246000fd5b9060005260206000209060060201600201548360000151611973565b7f1aa1ee4be14aa12897a092a50c2f334382a543045e1fa1a17c619698b71674ee8233600484606001518154811061128d577f4e487b7100000000000000000000000000000000000000000000000000000000600052603260045260246000fd5b90600052602060002090600602016002015460048560600151815481106112dd577f4e487b7100000000000000000000000000000000000000000000000000000000600052603260045260246000fd5b906000526020600020906006020160040154600486606001518154811061132d577f4e487b7100000000000000000000000000000000000000000000000000000000600052603260045260246000fd5b906000526020600020906006020160030154604051611350959493929190612461565b60405180910390a1505050565b6000600160009054906101000a900473ffffffffffffffffffffffffffffffffffffffff1673ffffffffffffffffffffffffffffffffffffffff16631af9cf49846040518263ffffffff1660e01b81526004016113ba919061271f565b60206040518083038186803b1580156113d257600080fd5b505afa1580156113e6573d6000803e3d6000fd5b505050506040513d601f19601f8201168201806040525081019061140a9190611f04565b90503373ffffffffffffffffffffffffffffffffffffffff166004600560008681526020019081526020016000206003015481548110611473577f4e487b7100000000000000000000000000000000000000000000000000000000600052603260045260246000fd5b906000526020600020906006020160000160009054906101000a900473ffffffffffffffffffffffffffffffffffffffff1673ffffffffffffffffffffffffffffffffffffffff16146114fb576040517f08c379a00000000000000000000000000000000000000000000000000000000081526004016114f2906125bf565b60405180910390fd5b60038161150891906127d6565b60ff16841161154c576040517f08c379a0000000000000000000000000000000000000000000000000000000008152600401611543906126bf565b60405180910390fd5b6001151560046005600086815260200190815260200160002060030154815481106115a0577f4e487b7100000000000000000000000000000000000000000000000000000000600052603260045260246000fd5b906000526020600020906006020160050160019054906101000a900460ff16151514611601576040517f08c379a00000000000000000000000000000000000000000000000000000000081526004016115f89061269f565b60405180910390fd5b600015156004600560008681526020019081526020016000206003015481548110611655577f4e487b7100000000000000000000000000000000000000000000000000000000600052603260045260246000fd5b906000526020600020906006020160050160009054906101000a900460ff161515146116b6576040517f08c379a00000000000000000000000000000000000000000000000000000000081526004016116ad906126ff565b60405180910390fd5b836004600560008681526020019081526020016000206003015481548110611707577f4e487b7100000000000000000000000000000000000000000000000000000000600052603260045260246000fd5b9060005260206000209060060201600201819055507f1b24a2fc4699c6fc65fe189be7dc682be029ba108d26a20d236860cbb27c04ba338584866004600560008a81526020019081526020016000206003015481548110611791577f4e487b7100000000000000000000000000000000000000000000000000000000600052603260045260246000fd5b9060005260206000209060060201600301546040516117b495949392919061254c565b60405180910390a150505050565b6117ca61196b565b73ffffffffffffffffffffffffffffffffffffffff166117e8610c68565b73ffffffffffffffffffffffffffffffffffffffff161461183e576040517f08c379a00000000000000000000000000000000000000000000000000000000081526004016118359061265f565b60405180910390fd5b600073ffffffffffffffffffffffffffffffffffffffff168173ffffffffffffffffffffffffffffffffffffffff1614156118ae576040517f08c379a00000000000000000000000000000000000000000000000000000000081526004016118a59061259f565b60405180910390fd5b8073ffffffffffffffffffffffffffffffffffffffff1660008054906101000a900473ffffffffffffffffffffffffffffffffffffffff1673ffffffffffffffffffffffffffffffffffffffff167f8be0079c531659141344cd1fd0a4f28419497f9722a3daafe3b4186f6b6457e060405160405180910390a3806000806101000a81548173ffffffffffffffffffffffffffffffffffffffff021916908373ffffffffffffffffffffffffffffffffffffffff16021790555050565b600033905090565b6000600160009054906101000a900473ffffffffffffffffffffffffffffffffffffffff1673ffffffffffffffffffffffffffffffffffffffff16631af9cf49856040518263ffffffff1660e01b81526004016119d0919061271f565b60206040518083038186803b1580156119e857600080fd5b505afa1580156119fc573d6000803e3d6000fd5b505050506040513d601f19601f82011682018060405250810190611a209190611f04565b90506000611a2e8483611cdd565b90506000611a3b85611d07565b90506000818387611a4c9190612811565b611a569190612811565b90506000600160009054906101000a900473ffffffffffffffffffffffffffffffffffffffff1673ffffffffffffffffffffffffffffffffffffffff1663d48e638a896040518263ffffffff1660e01b8152600401611ab5919061271f565b60206040518083038186803b158015611acd57600080fd5b505afa158015611ae1573d6000803e3d6000fd5b505050506040513d601f19601f82011682018060405250810190611b059190611dfe565b9050600260009054906101000a900473ffffffffffffffffffffffffffffffffffffffff1673ffffffffffffffffffffffffffffffffffffffff16638a7644a885836040518363ffffffff1660e01b8152600401611b639190612377565b6000604051808303818588803b158015611b7c57600080fd5b505af1158015611b90573d6000803e3d6000fd5b5050505050600260009054906101000a900473ffffffffffffffffffffffffffffffffffffffff1673ffffffffffffffffffffffffffffffffffffffff16638a7644a883886040518363ffffffff1660e01b8152600401611bf19190612377565b6000604051808303818588803b158015611c0a57600080fd5b505af1158015611c1e573d6000803e3d6000fd5b5050505050600260009054906101000a900473ffffffffffffffffffffffffffffffffffffffff1673ffffffffffffffffffffffffffffffffffffffff16638a7644a884600360009054906101000a900473ffffffffffffffffffffffffffffffffffffffff166040518363ffffffff1660e01b8152600401611ca19190612377565b6000604051808303818588803b158015611cba57600080fd5b505af1158015611cce573d6000803e3d6000fd5b50505050505050505050505050565b60008060648360ff1685611cf1919061277c565b611cfb919061274b565b90508091505092915050565b6000806064600284611d19919061277c565b611d23919061274b565b905080915050919050565b600081359050611d3d81612940565b92915050565b600081519050611d5281612940565b92915050565b600081519050611d6781612957565b92915050565b600081519050611d7c8161296e565b92915050565b600081359050611d9181612985565b92915050565b600081519050611da68161299c565b92915050565b600060208284031215611dbe57600080fd5b6000611dcc84828501611d2e565b91505092915050565b600060208284031215611de757600080fd5b6000611df584828501611d43565b91505092915050565b600060208284031215611e1057600080fd5b6000611e1e84828501611d58565b91505092915050565b600060208284031215611e3957600080fd5b6000611e4784828501611d6d565b91505092915050565b600060208284031215611e6257600080fd5b6000611e7084828501611d82565b91505092915050565b60008060408385031215611e8c57600080fd5b6000611e9a85828601611d82565b9250506020611eab85828601611d2e565b9150509250929050565b600080600060608486031215611eca57600080fd5b6000611ed886828701611d82565b9350506020611ee986828701611d82565b9250506040611efa86828701611d2e565b9150509250925092565b600060208284031215611f1657600080fd5b6000611f2484828501611d97565b91505092915050565b611f36816128ac565b82525050565b611f4581612857565b82525050565b611f5481612845565b82525050565b611f6381612869565b82525050565b6000611f7660268361273a565b91507f4f776e61626c653a206e6577206f776e657220697320746865207a65726f206160008301527f64647265737300000000000000000000000000000000000000000000000000006020830152604082019050919050565b6000611fdc600e8361273a565b91507f4d7573742062652073656c6c65720000000000000000000000000000000000006000830152602082019050919050565b600061201c601b8361273a565b91507f43616e6e6f742062757920796f7572206f776e20617274776f726b00000000006000830152602082019050919050565b600061205c60298361273a565b91507f5061796d656e74206d75737420626520657175616c20746f207072696365206f60008301527f66207468652061727400000000000000000000000000000000000000000000006020830152604082019050919050565b60006120c260178361273a565b91507f4974656d20697320616c7265616479206f6e2073616c650000000000000000006000830152602082019050919050565b600061210260148361273a565b91507f4e6f7420617070726f76656420746f2073656c6c0000000000000000000000006000830152602082019050919050565b600061214260208361273a565b91507f4f776e61626c653a2063616c6c6572206973206e6f7420746865206f776e65726000830152602082019050919050565b6000612182602b8361273a565b91507f4d757374206265207468652073656c6c65722f6f776e657220746f2072656d6f60008301527f766520616e206f666665720000000000000000000000000000000000000000006020830152604082019050919050565b60006121e860148361273a565b91507f4f66666572206d757374206265206163746976650000000000000000000000006000830152602082019050919050565b600061222860498361273a565b91507f507269636520696e20776569206d75737420626520332074696d65732068696760008301527f686572207468616e20726f79616c747920616d6f756e7420617320612077686f60208301527f6c65206e756d62657200000000000000000000000000000000000000000000006040830152606082019050919050565b60006122b460338361273a565b91507f4f6e6c7920746865206f776e6572206f662074686520617274776f726b20697360008301527f20616c6c6f77656420746f20646f2074686973000000000000000000000000006020830152604082019050919050565b600061231a60118361273a565b91507f4974656d20616c726561647920736f6c640000000000000000000000000000006000830152602082019050919050565b61235681612895565b82525050565b60006020820190506123716000830184611f4b565b92915050565b600060208201905061238c6000830184611f2d565b92915050565b60006060820190506123a76000830186611f2d565b6123b46020830185611f4b565b6123c1604083018461234d565b949350505050565b600060e0820190506123de600083018a611f3c565b6123eb6020830189611f4b565b6123f8604083018861234d565b612405606083018761234d565b612412608083018661234d565b61241f60a0830185611f5a565b61242c60c0830184611f5a565b98975050505050505050565b600060408201905061244d6000830185611f4b565b61245a6020830184611f4b565b9392505050565b600060a0820190506124766000830188611f4b565b6124836020830187611f4b565b612490604083018661234d565b61249d606083018561234d565b6124aa608083018461234d565b9695505050505050565b600060c0820190506124c96000830189611f4b565b6124d66020830188611f4b565b6124e3604083018761234d565b6124f0606083018661234d565b6124fd608083018561234d565b61250a60a0830184611f5a565b979650505050505050565b600060608201905061252a6000830186611f4b565b612537602083018561234d565b6125446040830184611f4b565b949350505050565b600060a0820190506125616000830188611f4b565b61256e602083018761234d565b61257b6040830186611f4b565b612588606083018561234d565b612595608083018461234d565b9695505050505050565b600060208201905081810360008301526125b881611f69565b9050919050565b600060208201905081810360008301526125d881611fcf565b9050919050565b600060208201905081810360008301526125f88161200f565b9050919050565b600060208201905081810360008301526126188161204f565b9050919050565b60006020820190508181036000830152612638816120b5565b9050919050565b60006020820190508181036000830152612658816120f5565b9050919050565b6000602082019050818103600083015261267881612135565b9050919050565b6000602082019050818103600083015261269881612175565b9050919050565b600060208201905081810360008301526126b8816121db565b9050919050565b600060208201905081810360008301526126d88161221b565b9050919050565b600060208201905081810360008301526126f8816122a7565b9050919050565b600060208201905081810360008301526127188161230d565b9050919050565b6000602082019050612734600083018461234d565b92915050565b600082825260208201905092915050565b600061275682612895565b915061276183612895565b92508261277157612770612911565b5b828204905092915050565b600061278782612895565b915061279283612895565b9250817fffffffffffffffffffffffffffffffffffffffffffffffffffffffffffffffff04831182151516156127cb576127ca6128e2565b5b828202905092915050565b60006127e18261289f565b91506127ec8361289f565b92508160ff0483118215151615612806576128056128e2565b5b828202905092915050565b600061281c82612895565b915061282783612895565b92508282101561283a576128396128e2565b5b828203905092915050565b600061285082612875565b9050919050565b600061286282612875565b9050919050565b60008115159050919050565b600073ffffffffffffffffffffffffffffffffffffffff82169050919050565b6000819050919050565b600060ff82169050919050565b60006128b7826128be565b9050919050565b60006128c9826128d0565b9050919050565b60006128db82612875565b9050919050565b7f4e487b7100000000000000000000000000000000000000000000000000000000600052601160045260246000fd5b7f4e487b7100000000000000000000000000000000000000000000000000000000600052601260045260246000fd5b61294981612845565b811461295457600080fd5b50565b61296081612857565b811461296b57600080fd5b50565b61297781612869565b811461298257600080fd5b50565b61298e81612895565b811461299957600080fd5b50565b6129a58161289f565b81146129b057600080fd5b5056fea26469706673582212209bed917cc767565e800f35760933cd6b872d6da326de8f994b0e65b9fd7a905f64736f6c63430008000033",
  "immutableReferences": {},
  "source": "// SPDX-License-Identifier: MIT\n\npragma solidity ^0.8.0;\n\nimport \"./node_modules/@openzeppelin/contracts/access/Ownable.sol\";\nimport \"./OpenMint.sol\";\nimport \"./PaymentGateway.sol\";\n\ncontract OpenMintMarketplace is Ownable {\n\n  OpenMint private _OpenMint;\n  PaymentGateway private _PaymentGateway;\n  address payable publisherWallet;\n\n  struct Offer{\n    address payable seller;\n    address tokenAddress;\n    uint256 price;\n    uint256 offerId;\n    uint256 tokenId;\n    bool isSold;\n    bool active;\n  }\n\n  Offer[] public offers;\n\n  mapping(uint256 => Offer) tokenIdToOffer;\n\n  event artworkAdded(address tokenAddress, address seller, uint256 price, uint256 tokenId, uint256 offerId, bool isSold);\n  event artworkSold(address tokenAddress, address buyer, uint256 price, uint256 tokenId, uint256 offerId);\n  event priceChanged(address owner, uint256 price, address tokenAddress, uint256 tokenId, uint256 offerId);\n  event artworkRemoved(address owner, uint256 tokenId, address tokenAddress);\n\n  constructor(address _OpenMintContractAddress, address _PaymentGatewayAddress, address payable _publisherWallet) {\n    _setOpenMintContract(_OpenMintContractAddress);\n    _setPaymentGatewayContract(_PaymentGatewayAddress);\n    publisherWallet = _publisherWallet;\n  }\n\n  function _setPaymentGatewayContract(address _PaymentGatewayAddress) private onlyOwner{\n    _PaymentGateway = PaymentGateway(_PaymentGatewayAddress);\n  }\n\n  function _setOpenMintContract(address _OpenMintContractAddress) private onlyOwner{\n    _OpenMint = OpenMint(_OpenMintContractAddress);\n  }\n\n  function setOffer(uint256 price, uint256 tokenId, address tokenAddress) public{\n    uint8 creatorRoyalty = _OpenMint.getRoyalty(tokenId);\n    require(_OpenMint.ownerOf(tokenId) == msg.sender, \"Only the owner of the artwork is allowed to do this\");\n    require(_OpenMint.isApprovedForAll(msg.sender, address(this)) == true, \"Not approved to sell\");\n    require(price > (creatorRoyalty * 3), \"Price in wei must be 3 times higher than royalty amount as a whole number\");\n    require(tokenIdToOffer[tokenId].active == false, \"Item is already on sale\");\n\n    uint256 offerId = offers.length;\n\n    Offer memory offer = Offer(payable(msg.sender), tokenAddress, price, offerId, tokenId, false, true);\n\n    tokenIdToOffer[tokenId] = offer;\n\n    offers.push(offer);\n\n    emit artworkAdded(address(_OpenMint), msg.sender, price, tokenId, offerId, false);\n  }\n\n  function changePrice(uint256 newPrice, uint256 tokenId, address tokenAddress) public{\n    uint8 creatorRoyalty = _OpenMint.getRoyalty(tokenId);\n    require(offers[tokenIdToOffer[tokenId].offerId].seller == msg.sender, \"Must be seller\");\n    require(newPrice > (creatorRoyalty * 3), \"Price in wei must be 3 times higher than royalty amount as a whole number\");\n    require(offers[tokenIdToOffer[tokenId].offerId].active == true, \"Offer must be active\");\n    require(offers[tokenIdToOffer[tokenId].offerId].isSold == false, \"Item already sold\");\n\n    offers[tokenIdToOffer[tokenId].offerId].price = newPrice;\n\n    emit priceChanged(msg.sender, newPrice, tokenAddress, tokenId, offers[tokenIdToOffer[tokenId].offerId].offerId);\n  }\n\n  function removeOffer(uint256 tokenId, address tokenAddress) public{\n    require(offers[tokenIdToOffer[tokenId].offerId].seller == msg.sender, \"Must be the seller/owner to remove an offer\");\n\n    offers[tokenIdToOffer[tokenId].offerId].active = false;\n    delete tokenIdToOffer[tokenId];\n\n    emit artworkRemoved(msg.sender, tokenId, tokenAddress);\n  }\n\n  function buyArt(uint256 tokenId, address tokenAddress) public payable{\n    Offer memory offer = tokenIdToOffer[tokenId];\n    require(offers[offer.offerId].price == msg.value, \"Payment must be equal to price of the art\");\n    require(offers[offer.offerId].seller != msg.sender, \"Cannot buy your own artwork\");\n    require(offers[offer.offerId].active == true, \"Offer must be active\");\n\n    delete tokenIdToOffer[tokenId];\n    offers[offer.offerId].isSold = true;\n    offers[offer.offerId].active = false;\n\n    _OpenMint.safeTransferFrom(offer.seller, msg.sender, tokenId);\n\n    _distributeFees(tokenId, offers[offer.offerId].price, offer.seller);\n\n    emit artworkSold(tokenAddress, msg.sender, offers[offer.offerId].price, offers[offer.offerId].tokenId, offers[offer.offerId].offerId);\n  }\n\n  function _computeCreatorFee(uint256 price, uint8 royalty) internal pure returns(uint256){\n    uint256 creatorFee = price * royalty / 100;\n    return creatorFee;\n  }\n\n  function _computePublisherFee(uint256 price) internal pure returns(uint256){\n    uint256 publisherFee = price * 2 / 100;\n    return publisherFee;\n  }\n\n  function _distributeFees(uint256 tokenId, uint256 price, address payable seller) internal{\n    uint8 creatorRoyalty = _OpenMint.getRoyalty(tokenId);\n    uint256 creatorFee = _computeCreatorFee(price, creatorRoyalty);\n    uint256 publisherFee = _computePublisherFee(price);\n    uint256 payment = (price - creatorFee - publisherFee);\n\n    address payable creator = _OpenMint.getCreator(tokenId);\n\n    _PaymentGateway.sendPayment{value: creatorFee}(creator);\n    _PaymentGateway.sendPayment{value: payment}(seller);\n    _PaymentGateway.sendPayment{value: publisherFee}(publisherWallet);\n  }\n}\n",
  "sourcePath": "/Users/tylersiravo/Documents/Documents/GitHub/OpenMint/contracts/OpenMintMarketplace.sol",
  "compiler": {
    "name": "solc",
    "version": "0.8.0+commit.c7dfd78e.Emscripten.clang"
  },
  "schemaVersion": "3.3.4",
  "updatedAt": "2021-06-09T17:36:18.522Z",
  "networkType": "ethereum",
  "devdoc": {
    "kind": "dev",
    "methods": {
      "owner()": {
        "details": "Returns the address of the current owner."
      },
      "renounceOwnership()": {
        "details": "Leaves the contract without owner. It will not be possible to call `onlyOwner` functions anymore. Can only be called by the current owner. NOTE: Renouncing ownership will leave the contract without an owner, thereby removing any functionality that is only available to the owner."
      },
      "transferOwnership(address)": {
        "details": "Transfers ownership of the contract to a new account (`newOwner`). Can only be called by the current owner."
      }
    },
    "version": 1
  },
  "userdoc": {
    "kind": "user",
    "methods": {},
    "version": 1
  }
}